:020000040800F2
:10000000E8130020D5000008E1490008E93700089E
:1000100000000000000000000000000000000000E0
:10002000000000000000000000000000F76C000865
:10003000000000000000000031550008C9860008DB
:10004000E7000008E70000084B5C0008E700000834
:10005000E70000084D0F00085D0F00086D0F000855
:10006000E7000008E7000008E7000008E7000008D4
:10007000E7000008E7000008E7000008E7000008C4
:10008000E7000008E7000008E700000800000000A3
:10009000E7000008E7000008E7000008E7000008A4
:1000A000E7000008E7000008E7000008E700000894
:1000B000678D0008E700000800000000E700000866
:1000C0000348854600F078FC00480047D1A30008AB
:1000D000E81300200448804704480047FEE7FEE795
:1000E000FEE7FEE7FEE7FEE75D870008C1000008C7
:1000F00030B50B46014600202022012409E00D46C0
:10010000D5409D4205D31D469540491B2546954047
:1001100040191546521E002DF1DC30BD70B500248B
:100120002546002801DA01244042002901DA012590
:100130004942FFF7DDFFAC4200D04042002C00D026
:10014000494270BDF0B51FB40646002082B0054696
:100150004024019100901BE0019922460F46304651
:1001600000F0F4FA049A059B801A994110D31046C6
:100170001946224600F0DAFA361A8F4101972246D4
:1001800001200021009F00F0D1FA38184D41009065
:100190002046641E0028DFDC019B00982946324679
:1001A00007B0F0BD03460B439B0703D009E008C925
:1001B000121F08C0042AFAD203E00B780370401C17
:1001C000491C521EF9D27047D2B201E00270401CA5
:1001D000491EFBD270470022F6E710B513460A46C7
:1001E00004461946FFF7F0FF204610BD0321001D0D
:1001F000401E037812021A43491EF9D51046704773
:10020000F8B502464A40D40F42004B0052085B0842
:100210009A4202D20246084611464A0023D0C30D34
:100220004A00DDB2120EAD1A202D35DA4902012640
:10023000490AF6058A19002C00D0524220214F1B92
:100240001146B9402A411018C20D9A4221D0002C03
:1002500017D0012D08DCDA05801AD20F8019D207D9
:10026000DBB200F09FFAF8BDDA05801A01234000E6
:100270001B06C01880185A428018CA0F1043490044
:1002800007E04908C2071143DA05801A80194008BF
:10029000801800F07FFAF8BD61000122511A001B9E
:1002A000F7E70122D2075140AAE70122D2075040C6
:1002B000A6E70000F0B507460846584087B0C00FD3
:1002C000049048000E46590040084908BC1A88416D
:1002D00005D2384631461E4617460B4602465800A0
:1002E000400810434CD0300D039040055900400D9C
:1002F000490D0590401A0290402872DA1803012136
:10030000000B09050843019004980092002805D0CD
:1003100001995242002088410092019002984021A8
:100320000A1A0199009800F001FA05460C466B463E
:1003300007CB00F01CFAC0197141039A0E0D00237F
:10034000D71756401A467A40164344D0049A002ADA
:100350002DD0029A012A039A15DC1205C01A914188
:1003600001263605001C7141D20F059ED20700936D
:10037000019202962A46234600F05AFA07B0F0BDD1
:1003800038463146FAE71605224A0F46B218C01A17
:10039000B74101210905001C4F4100187F4111465A
:1003A00018187941E20F10436D19644113E0E20718
:1003B0006D0815436408C2071443039A0126120509
:1003C000C01A91413605001C7141CE0740083043E8
:1003D0004908C01851412A46234600F01CFACDE7CF
:1003E000FFE7049801224000C117121A00238B4135
:1003F00004983146C417381AA141EEE730B40124FD
:10040000E407634030BC55E730B40124E4076140A1
:1004100030BC4FE70000E0FFF0B51FB488B00B9987
:100420000998002448400999C00F490049080991DA
:10043000C0070B990090490049080B910999089849
:10044000A64608431CD00B990A98084318D009986F
:1004500001244000420D4800410D09982405000385
:10046000000B204309900B980003000B20430B90D6
:1004700050181C494018002201901446104605E00F
:10048000002001460DB0F0BD032801DA034600E06C
:1004900003239C46C11A0AAE0AE05F0008ADED5B7B
:1004A0004F00F75B7D430027AA187C41491C5B1E67
:1004B0006145F2DD410004AB5A522104120C0A439B
:1004C000240C401C0828DFDB01980290009970463C
:1004D00001910090059B049A0799069800F0A8F9ED
:1004E000D0E700000DFCFFFFF0B50C465C4085B086
:1004F000E40FE40703944C00002664085900944676
:10050000490802460296224321D062460A431ED081
:100510006200570D4A000E032303550D01240246C5
:100520002C492405781B1B0B360B4018234326430C
:10053000614600901C46501AB44103D30098401CF9
:10054000009002E0921800985B41002803DA002036
:10055000014605B0F0BD0020012109050746864689
:1005600011E064461D46141BB54106D36546521B77
:10057000B341744607430C43A646CD0740084908DB
:10058000284392185B4105460D43EAD110461843B3
:1005900013D06046194650407140084306D060466B
:1005A000101AB34106D20122002306E000220123E3
:1005B000DB0702E00122D243531000987446010584
:1005C000381C6141029C039D0019694100F023F928
:1005D000BFE70000FD03000070B54B005B0803435C
:1005E0000BD04B005C0D002633466542B341D41757
:1005F000AD1AA34102DB0020014670BD1205301880
:10060000514170BD10B500229623114600F0CAF882
:1006100010BD00000EB5C217C10F5040CA074018E8
:100620000021054B0293019200910A460B4600F00F
:10063000FFF803B000BD0000330400000EB505490B
:100640000291002100910A460B46019100F0F0F85A
:1006500003B000BD3304000070B5CD0F4A0009039C
:100660000123090B1B0519430B4BED070024520D09
:100670009A4201DA002070BD074B34339A4203DC02
:100680009A1A00F063F802E00449511888402C439C
:10069000F1D0404270BD0000FF030000CDFBFFFF22
:1006A0004A0009030123090B1B051943094B10B527
:1006B000520D9A4201DA002010BD064B34339A42A3
:1006C00003DC9A1A00F042F810BD03495118884023
:1006D00010BD0000FF030000CDFBFFFFC20FD207DB
:1006E000400040080BD0C10D0723DB01C9184002B0
:1006F0000905400A1143C208400711437047002012
:100700000146704710B5002904DB0124E40740428C
:100710008C412146002B04DB1C460123DB0752429F
:10072000A341994200D1904210BD000010B5202A8B
:1007300004DB0146203A9140002010BD9140202367
:100740009C1A0346E3401943904010BD10B5202A7F
:1007500004DB0846203AD040002110BD0B46D340B0
:10076000D0402024A21A91400843194610BD10B56C
:10077000202A06DBCB170846203A1041C1170B434D
:1007800006E00B461341D0402024A21A91400843B2
:10079000194610BD002904DA401C490001D1400867
:1007A0004000704770B40024050C05D110240004EB
:1007B00002D1002921D01124050E01D100020834F4
:1007C000050F01D10001241D850F01D18000A41C5B
:1007D000002801DB4000641C002908D020252E1BC6
:1007E0000D46F540A14000D00121294308430106F0
:1007F0001B1B000ADB1D02D5002070BC7047DB0507
:10080000181880180029F8DA401C4900F5D170BC8E
:1008100040084000704710B5002B08DA0024401C47
:10082000614192185B411A4301D14008400010BD5C
:10083000F0B51FB482B005460C0003D0084608F09E
:1008400017FE02E008F014FE203002460090214618
:100850002846FFF76BFF049B059A04460F46184392
:100860001143084314D0184610431BD00098402170
:100870000A1A18460599FFF769FF05460E46009AC1
:1008800005990498FFF752FF084305D0012004E0C2
:100890002046394607B0F0BD0020C11705430E437E
:1008A0002C43374300990E986305401A7905E40AF2
:1008B00000220C43FD0A0A3002D500200146E9E778
:1008C0000105101969410C9C0D9D00196941FFF744
:1008D000A2FFDFE7F8B50546480040080C4628436C
:1008E00004D06000184A400D904201DD2846F8BD52
:1008F00015493539884210DC88420BDB290D20036D
:1009000008432903014305D0E00F1049C0074118EF
:100910000020F8BD00200146F8BD161A4020821BB9
:1009200028462146FFF702FF074600912846214648
:100930003246FFF70BFF3A46009BFFF76CFF32464B
:10094000FFF7F4FEF8BD0000330400000000F03FA4
:100950004A0009030123090B1B0519430A4B10B573
:10096000520D9A4202DA0020014610BD064B343384
:100970009A4203DC9A1AFFF7E9FE10BD034BD21826
:10098000FFF7D4FE10BD0000FF030000CDFBFFFF0A
:1009900010B5002904DB0124E40740428C412146C4
:1009A000002B04DB1C460123DB075242A3418B4290
:1009B00000D1824210BD0000064C0125064E05E024
:1009C000E36807CC2B430C3C98471034B442F7D370
:1009D000FFF77AFB0CB100082CB1000870B58C1839
:1009E0000578401C6B075B0F01D10378401C2A116E
:1009F00006D10278401C03E006780E70401C491CAA
:100A00005B1EF9D12B0705D40023521E0DD40B70A9
:100A1000491CFAE70378401CCB1A921C03E01D78AE
:100A20000D70491C5B1C521EF9D5A142D8D3002081
:100A300070BD000038B50446064805490068FFF758
:100A400057FB604300E0401E00900028FBD138BDFA
:100A500040420F004C000020F8B504460068816851
:100A60008907890F012902D10168C90722D181684C
:100A7000114A10261140012500290ED18168294311
:100A800081600120FFF7D6FF00F0D2FD07460CE0A1
:100A900000F0CEFDC01B0A2807D9A06D3043A06529
:100AA000E06D2843E0650120F8BD20680068C04380
:100AB000C007EDD10020F8BD17000080F0B589B067
:100AC0000C46074610220021684609F0A3FD69463E
:100AD0002246084609F073F9684600788726010621
:100AE000684600290FDA00214318425C5B78520007
:100AF000DB091A434254491C0F29F5DBC17B02462E
:100B0000490071400DE000214318425C5B785200BF
:100B1000DB091A434254491C0F29F5DBC17B02460D
:100B20004900D173E21DF9325169102912D00178C0
:100B300009061BD500214518435C6D785B00ED0963
:100B40002B434354491C0F29F5DBC17B0346490065
:100B5000714019E000216218FF3201325378455C80
:100B6000491C6B4053701029F5DB26E00021451825
:100B7000435C6D785B00ED092B434354491C0F29FE
:100B8000F5DBC17B03464900D973E11D556980231C
:100B9000FA316B54002500E05D5453695B1C5361CE
:100BA000102BF9D300216218FF3201325378455CD3
:100BB000491C6B4053701029F5DB00216218104668
:100BC000FF32E0300132437C5278491C5340437479
:100BD0001029F3DB21461022F13104A809F002FDAF
:100BE0002246394604A809F0EAF810220021684696
:100BF00009F010FD09B0F0BD10B504461022002127
:100C0000F13009F007FDFF20002115300151F022DD
:100C1000204609F0FFFC10BD0B4610B5024610211E
:100C2000184609F0F7F810BDF0B50446FF308BB058
:100C30000F4601300890E11D4069FA3100911039EA
:100C400015460791002843D010210E1AAE4200D35A
:100C500016460099B2B24018394609F0C3FC08980C
:100C6000089940698019486110283AD3B54238D0B4
:100C7000002162181046FF32E0300132437C527886
:100C8000491C534043741029F3DB07992246084658
:100C900009F095F8BF19AD1B1AE000202118E031CA
:100CA0004A7C3B5C401C5A404A741028F6DB1022F8
:100CB00002A8079909F096FC02A92246084609F005
:100CC0007EF8102202A9079809F08CFC103D10371D
:100CD000102DE2D8AAB23946009809F083FC089892
:100CE00045610BB0F0BD0000F7B52B498022497A71
:100CF000294B511ACDB2197A5B7A8026F31A0A462B
:100D0000DEB2871E491C0124C9B2761E3B0008F0E2
:100D1000DEFB09060C06161A0C2906363F001E4B90
:100D2000AA4237D21D4CA05407E01B4BB24231DA25
:100D30001A4CA05401986054491C19721AE0164BC1
:100D4000B2421FDB26E0144EAD1EAA4222DA134B3C
:100D5000985401985854491CC8B202991954401C1F
:100D6000307207E00C4BAA4214D20C4CA0541972FA
:100D700007F056FC002408480121C1710AE0064B27
:100D8000AA4207D2054CA05401986054491CEEE7D2
:100D90000220FEBD2046FEBDD8000020A60A00208D
:100DA00010B502221449012386B000281ED0012864
:100DB00004D002281AD0032807D117E0CA6A1A43C0
:100DC000CA62C96AC907C90F059141000B4A800070
:100DD000515A009100210291032103910849019386
:100DE0000858694600F05CFB06B010BDCC6A14439D
:100DF000CC62C96A1140E7E700100240E0AC00088D
:100E00003C00002010B5054A4100515A044A8000B8
:100E10001058002200F006FC10BD0000E0AC0008F5
:100E20003C0000207047FFB5002085B000900546CB
:100E3000064601900024770007980121C05BA1407D
:100E400008422FD028190C2203905043089A1258B8
:100E5000002A27D0059A002A01D1490722D00899F3
:100E60004118082002910856021100070117069840
:100E700040B205F029F9002814D00298407A010107
:100E80000E980818C068002804D00198401CC0B211
:100E9000019007E0009A0F99039888540098401C2D
:100EA000C0B20090641CE4B2102CC5D31035761C7F
:100EB000EDB2F6B2102DBDD31099019808700098CC
:100EC00009B0F0BD30B587B014216846FFF783F94B
:100ED0001A4CE16A02200143E162E16A184D0140C7
:100EE0000120019002900320039005910F20000340
:100EF00000906946284600F0D3FA0022A114284643
:100F000000F090FB012100224903284600F08AFBF3
:100F100000222901284600F085FB002269012846AD
:100F200000F080FB606B29030843606300F08AFADD
:100F300000F098FA00F08EFA07B030BD00100240C1
:100F40000004005010B502F0F9F910BD10B50120F1
:100F500000F09AFA022000F097FA10BD10B50420B4
:100F600000F092FA082000F08FFA10BD10B51020A2
:100F700000F08AFA202000F087FA402000F084FA7E
:100F8000802000F081FAFF20013000F07DFA01207E
:100F9000400200F079FA0120800200F075FA012089
:100FA000C00200F071FA0120000300F06DFA012088
:100FB000400300F069FA0120800300F065FA012087
:100FC000C00300F061FA10BDFEE700000649800092
:100FD00009580648091803D0C14203D000207047C1
:100FE000012070470220704754AD0008702FFCFFAD
:100FF00010B5094A0021CB00D458844207D89B1869
:101000009B68834203D9C8008018007910BD491C31
:10101000C9B21529EFD3FEE7B8AB0008F8B505460D
:1010200004464035287D0026012808D00120287577
:10103000206881688907890F01290ED101E002200B
:10104000F8BD0168C90708D0A06D20210843A0653C
:101050000126002028753046F8BDA16DFF2201321F
:10106000914302221143A165C1688907890F00914C
:10107000C16889088900C1602068816892071143AE
:10108000816000F0D5FA07460EE000F0D1FAC01BEF
:101090000A2809D9A06D0221884310210843A065C0
:1010A000002028750120F8BD206880680028ECDB4E
:1010B0002068C168009A1143C160A06D800880005B
:1010C000401CA065C5E70000F8B506460D46403651
:1010D000317D01290DD00121317501688A685207DF
:1010E00009D5816D202211438165002030750120D2
:1010F000F8BD0220F8BD174B6A68D80547109A4220
:10110000154C8A6A2B6812D05B035B0B1A438A6208
:101110002968490305D5A1680143A1600A20FFF7AA
:1011200089FC2868800312D5A06838430EE05B0371
:101130005B0B9A438A622968490302D5A1688143FF
:10114000A1602868800302D5A068B843A060002091
:101150003075F8BD01100000002701400068006CE8
:101160007047000070B5040006D0A06D264600252B
:101170004036002802D006E0012070BDE5653575D7
:10118000204600F0D1F8A06DC00603D4216888681D
:10119000400705D5A06D10210843A0653575EBE724
:1011A000A06DFF220132904302221043A06588689F
:1011B0008207920F5A48012A02D10A68D2072BD11E
:1011C000032362689B079A4205D05B429A4202D091
:1011D0005B009A4209D10A69920092080A6121686B
:1011E0000A6963681A430A610CE00A69920092086E
:1011F0000A6181680F22920491438160816862686C
:10120000114381602168CA6818239A43CA60216823
:10121000CA68A3681A43CA608168012252069143D2
:1012200081608168228F5206114381602068816845
:10123000C90004D48168012212071143816020682B
:10124000C168384A1140C1602169E068022923D091
:1012500000210843216A226B4903520011430843CD
:10126000616B0843A16989030843E169C903084325
:101270002168CA681043C860A06A0146FF39C239B4
:1012800005D0E16A08432168CA681043C860606AF3
:101290000121012802D00BE00421DAE7206A0028AE
:1012A00023D0A06D20221043A065E06D0843E065C7
:1012B000206C012820681FD00169C90703D001698B
:1012C00049084900016120684169C908C9004161B4
:1012D00020684169E26B11434161E565A06D8008BA
:1012E0008000401CA065002070BD2068C2680123FA
:1012F0001B041A43C260DBE70269FF239B009A4389
:10130000026120680269636CE66C1A43A36C334384
:101310001A430261206802690A430261D3E70000B0
:10132000002701401902FEFF7047F8B504464069E6
:10133000254640350E4608280BD02068C068C007F7
:1013400009D0A06D20210843A06500202875012048
:10135000F8BD082700E00C2700F06AF9009011E0C2
:10136000701C0FD0002E05D000F062F90099401AD1
:10137000B04207D9A06D04210843A065002028755C
:101380000320F8BD206800683842E9D0A06D012133
:1013900049020843A0652068C16809058A0F0C212D
:1013A000002A1AD1226A002A17D10268120714D51E
:1013B000826853070122002B08DB43688B4343609C
:1013C000A06D130298431043A06506E0A06D202392
:1013D0001843A065E06D1043E065A069002801D1C5
:1013E000206801600020F8BD70B504462168002027
:1013F0008968490721D425464035297D01291CD01B
:1014000001212975E169012904D02046FFF724FB59
:10141000002811D1A16D0A4A1140FF220132114367
:10142000A1650021E165297522681C2111602168F0
:101430008A6804231A438A6070BD022070BD0000D0
:10144000FEF1FFFF024841680122114341607047ED
:10145000005801400248416804221143416070472E
:101460000058014002484168022211434160704720
:101470000058014001B50098FFF764FD08BD10B5A4
:1014800001F02EFE10BD000010B504494A69024269
:1014900002D04861FFF7F3FF10BD000000040140D7
:1014A000F8B500230124A7E027469F403A4070D0BA
:1014B0004D68022D01D0122D14D1DD08AD002D187C
:1014C00000952D6A5E07AC46F50E0F26AE46AE407F
:1014D0006546B543AC460E697546AE4065462E433B
:1014E000009D2E624D68012D05D0022D03D0112DD7
:1014F00001D0122D16D185680326AC465D00AE469C
:10150000AE406546B543AC46CE687546AE406546CE
:101510002E43866046680D79BE43ED06ED0F9D4073
:101520003543456006685F000325BD40AE46AE43C7
:101530000D79B446AE07B60FBE4065462E43066031
:10154000C6687546AE438D68BD403543C5604D687D
:10155000ED0050D52B4D6E6B26436E639E082A4DD1
:10156000B6007519AC46AD689E07360F0F27B74019
:10157000BD4305273F07B84201D100271AE0234F9A
:10158000B84201D1012715E0214FB84202D102270C
:1015900010E030E01F4FB84201D103270AE01E4F90
:1015A000B84201D1042705E01C4FB84201D10527FC
:1015B00000E00627B7402F436546AF60184D2E6800
:1015C0004F689643FF0300D516432E606E684F6840
:1015D0009643BF0300D516436E60AE684F689643CE
:1015E000FF0200D51643AE60EE684F689643BF0217
:1015F00000D51643EE605B1C0A681546DD4000D03E
:1016000052E7F8BD00100240000001400004005005
:1016100000080050000C005000100050001C00504A
:1016200000040140002A01D0816170478162704747
:1016300001480068704700005000002070B5024665
:1016400040325378202B1CD11378012B19D0012361
:10165000137024245470046825689D432560046831
:1016600025681E03B5432560046825680D43256081
:10167000006801681943016020205070002010703C
:1016800070BD022070BD70B5024640325378202BE9
:101690001BD11378012B18D001241470242353700C
:1016A00003681D68A5431D6005682B680F26360278
:1016B000B3430902194329600068016821430160AE
:1016C000202050700020107070BD022070BD0000FE
:1016D00070B5040006D025464035687800260028FD
:1016E00002D005E0012070BD2E70204600F05AF9AE
:1016F00024206870206801684908490001600F21B2
:101700006068090688432168086121688A680120A9
:10171000C00382438A60E1680129A16808D02122C0
:101720009202114322689160E168022902D005E02B
:101730000143F7E701212268C902516021684A6824
:101740000F4B1A434A602168CA688243CA606169C4
:1017500020690843A169090208432168C860216A19
:10176000E06908432168086020680168012211438C
:1017700001606664202068702663AE70002070BD32
:1017800000800002FFB5054604464035687881B008
:10179000202878D12878012875D001202870FFF7FB
:1017A00047FF0746012200901923D103204602F08B
:1017B0007BF800283CD1222068701020A8700026F9
:1017C000666403986062049860856663618D2F4843
:1017D000FF2903D9FF22228500903BE0618D2185FE
:1017E00000903DE02046029902F04AF816E002F02F
:1017F00083F800281CD12068406A616A0870606A1A
:10180000401C6062208D401E81B22185608D401E8B
:101810006085608D002801D000290CD0608D0A9968
:1018200000283A462046E2D102F0A6F800281CD053
:10183000012005B0F0BD00970022802120460A9BC0
:1018400002F032F80028F3D1608DFF2805D9FF227D
:101850002285009601231B06C4E7608D2085009633
:10186000208D0123C2B25B06BCE721682020C8613D
:1018700021684A68064B1A404A606870AE702E7044
:101880000020D6E7FFE70220D3E700000024008015
:1018900000E800FEFFB5054604464035687881B093
:1018A000202878D12878012875D001202870FFF7EA
:1018B000BFFE0746012200901923D103204601F004
:1018C000F3FF00283CD1212068701020A87000266A
:1018D000666403986062049860856663618D2F4832
:1018E000FF2903D9FF22228500903BE0618D2185ED
:1018F00000903DE02046029901F0C2FF16E002F0A0
:1019000061F800281CD1606A216800788862606AEA
:10191000401C6062608D401E6085208D401E80B23C
:101920002085618D002901D000280CD0608D0A9996
:1019300000283A462046E2D102F01EF800281CD0CA
:10194000012005B0F0BD00970022802120460A9BAF
:1019500001F0AAFF0028F3D1608DFF2805D9FF22EE
:101960002285009601231B06C4E7608D2085009622
:10197000208D0123C2B25B06BCE721682020C8612C
:1019800021684A68064B1A404A606870AE702E7033
:101990000020D6E7FFE70220D3E700000020008008
:1019A00000E800FE10B586B0044614216846FEF734
:1019B00012FC1149206888421BD1104CE16A0220B8
:1019C0000143E162E16A01400320059100020090B9
:1019D0001220019001200290032003900420049023
:1019E00069460748FFF75CFDA06B012149050843E4
:1019F000A06306B010BD000000540040001002407B
:101A00000004005002480168491C01607047000052
:101A10005000002010B50648016802221143016001
:101A2000032000F007F800F007F8002010BD0000C8
:101A3000002002400020704710B50B48816B020463
:101A40001143816300F046F800F03CF80748026853
:101A500008210A43026002688A43026000F02AF803
:101A600001F0EEFB10BD000000100240002002401B
:101A7000C106C90E01208840014908607047000076
:101A800080E200E0C106C90E0120884001490860DB
:101A90007047000000E100E0C106C90E0120884047
:101AA000014908607047000000E200E010B502F054
:101AB00099FF10BD0248016802151143016070478B
:101AC00000700040024801684215114301607047F0
:101AD0000070004002480168102291430160704785
:101AE00000700040F8B56649074601250020ED0367
:101AF000624B634A4031102F6FD011DC012F77D039
:101B0000022F6CD0042F6BD0082F24D1C968032476
:101B1000240321407BD0BD026C10A9427CD0A0E000
:101B20000326584C3604202F0BD0402F35D0FF3FD2
:101B3000012F10D1C968314069D07C04A1426BD01B
:101B400096E00B690969012731403F04B94203D18E
:101B5000990559E02846F8BD01256D04A94203D135
:101B60009907F8D54848F8BDB142FCD111688903FE
:101B7000F9D5116803200005014001200005091A6C
:101B800009D0091A05D0814201D14048F8BD20464C
:101B9000F8BD3F48F8BD3F48F8BDC9680125AD060E
:101BA000294006D0A942F7D191688907F4D53A486F
:101BB000F8BD11688901FBD5D068D1688002374D26
:101BC000000F2D5C0802810FD068491CC0030AD4A5
:101BD0001068C00605D5204606E045E008E023E091
:101BE00030E0184600E02E486843FEF781FAF8BD61
:101BF000CC68A407A40F0CD0022C0DD0012C10D05F
:101C0000032CF4D1096989050029A3DBF8BD16E08E
:101C100002E000F0D1F9F9E711684907F6D5184656
:101C2000F4E700F0D9F9F1E7CC680C26344006D08F
:101C3000082CF1D0042CF4D00C2CE3D0E6E700F013
:101C4000ABF9E3E7CC680326B6023440F7D00127AE
:101C5000FF02BC42E0D07A109442E2D0B442D1D02C
:101C6000D4E7A142DDD0D1E7916B4902E7D4CDE7BB
:101C7000012212049142D4D0C8E700000024F400ED
:101C80000010024000093D008890000020A10700DC
:101C900040420F0080841E00006CDC02F8AC00089B
:101CA00000127A00F8B5044600785E4D800672D5C1
:101CB0005C4E0027403EB06BC00004D4B06BA90559
:101CC0000843B063012758480168C90511D4016869
:101CD000821511430160FFF7ABFC009005E0FFF7B0
:101CE000A7FC0099401A642837D84F480068C005FF
:101CF000F5D532680321090560680A400140914228
:101D000008D08103890F032904D13168890301D5E3
:101D10000120F8BD2A69032109040A4022D00840A5
:101D200090421FD0207880061CD528692A698843F4
:101D30000121C9040A432A612A698A432A61286168
:101D4000C0050FD5FFF774FC009008E0FFF770FCAA
:101D50000099411A3548814201D90320F8BD28690C
:101D60008005F3D561688803800F032805D13268A8
:101D70000005824301400A433260286903226168FA
:101D80001204114008432861002F04D0B06B0121D8
:101D900009078843B0632078C00705D0E868A168C8
:101DA000800880000843E8602078800705D5E8684F
:101DB0000C218843E1680843E8602078400706D595
:101DC000E86803218902884321690843E860207894
:101DD000000706D5E86803210903884361690843C1
:101DE000E8602088C00506D5E86803210904884317
:101DF000A1690843E8602078400606D5E86801211B
:101E000089068843216A0843E8602078000606D5E1
:101E1000E868032189048843E1690843E8600020F9
:101E2000F8BD000040100240007000408813000020
:101E3000F8B5054653480E460068C007C00FB042CB
:101E40000AD25048016849084900314301600068DE
:101E5000C007C00FB0426FD128784B4C800705D522
:101E6000E068F0218843A9680843E0602878C0074B
:101E700052D06868022817D0032818D0216801289A
:101E800018D08905002957DAE168890889000143DB
:101E9000E160FFF7CDFB69680746022912D00329EC
:101EA0001CD0012926D033E021688903EAE72168A4
:101EB0008901E7E74907E5E7FFF7BAFBC11B3348AC
:101EC000814223D8E0680007800F0228F4D123E084
:101ED000FFF7AEFBC11B2D48814217D8E068000711
:101EE000800F0328F4D117E0FFF7A2FBC11B27489E
:101EF00081420BD8E0680007800F0128F4D10BE085
:101F0000FFF796FBC11B2148814201D90320F8BD90
:101F1000E0680007800FF3D11A480168C907C90FAC
:101F2000B1420BD90168490849003143016000689A
:101F3000C007C00FB04201D00120F8BD287840078B
:101F400006D5E068072109028843E9680843E06094
:101F50002878000707D5E0680721C9028843296966
:101F6000C9000843E06000F037F8E168084A090654
:101F7000090F515CC840074908600320FFF75AFD6C
:101F80000020F8BD0020024000100240881300002D
:101F9000E8AC00084C000020044805490068C96806
:101FA000044A4905490F515CC84070474C00002065
:101FB0000010024001AD0008044805490068C968E6
:101FC000044A8904490F515CC84070474C00002006
:101FD0000010024001AD000810B5184AD1680C206D
:101FE000084004280BD0082810D00C2810D05068C6
:101FF0000004410F0120C003491C884010BD106837
:10200000C00601D50E4810BD0E4810BD0E4810BDCB
:1020100088020E4B000F185C0902D368890F491C17
:10202000DB0301D5084A05E01268D20601D5044A4F
:1020300000E0044A5043FEF75BF810BD0010024078
:1020400000093D000024F40000127A00F8AC0008FA
:10205000F8B504460078FF4DC0074CD0E86800078B
:10206000800F022807D0E8680007800F032809D1F5
:10207000E868C00306D5286880033CD5606800285E
:1020800075D038E0012062680004824203D12968DB
:102090000143296011E0052301211B0489049A42B0
:1020A0002A6802D10A432A60F1E782432A602A683B
:1020B00002400092286888432860606800280DD09C
:1020C000FFF7B6FA0646E44F04E0FFF7B1FA801BCB
:1020D000B8427DD828688003F7D50CE0FFF7A8FA4E
:1020E0000646DD4F04E0FFF7A3FA801BB842F0D8A4
:1020F00028688003F7D42078800741D5E8681F2737
:102100000007800F3F02012807D0E8680007800F12
:10211000032809D1E868C00306D42868400717D50A
:10212000E068012823D113E0E068002817D029686F
:102130000922914301432960FFF77AFA064604E039
:10214000FFF776FA801B0228C3D828684007F7D526
:1021500068682169B84309020843686010E028688C
:10216000400840002860FFF763FA064605E090E06B
:10217000FFF75EFA801B0228ABD828684007F7D427
:102180002078C00676D5E868B44E0007800F0BD0E3
:10219000E06900285DD02868FF21013108432860EC
:1021A000FFF746FA074644E02868800502D5E06953
:1021B00000286ED0606A69683140884212D903F005
:1021C000DDFC0028AED16868616AB043084300E0D6
:1021D000E4E068606868218C0002000A0906084390
:1021E00068600FE06968B143014369606868218CE9
:1021F0000002000A090608436860606A03F0BEFC3A
:1022000000288FD1606A410B0120C003491C88401F
:10221000E968934A0906090F515CC8409149086072
:102220000320FFF707FC25E0FFF702FAC01B022896
:102230008AD828688005F7D56868616AB043084382
:1022400068606868218C0002000A0906084368601B
:1022500010E02968FF20013081432960FFF7E8F989
:10226000064604E0FFF7E4F9801B022884D82868BA
:102270008005F7D420787C4E000723D560690028BC
:10228000306910D0012108433061FFF7D1F90746CA
:1022900005E009E1FFF7CCF9C01B02287ED83069C0
:1022A0008007F7D50EE0400840003061FFF7C0F925
:1022B000074604E0FFF7BCF9C01B02286ED830695E
:1022C0008007F7D42078400761D5A86B0027C000AD
:1022D00005D4A86B012109070843A86301276348B7
:1022E0000168C90511D40168821511430160FFF727
:1022F0009FF9009005E0FFF79BF90099401A6428C8
:102300004CD85A480068C005F5D5FF20A2680130B6
:10231000824203D131690143316111E00121890217
:10232000002A07D005231B029A4203D132690A43CF
:102330003261EFE73269824332613069884330614C
:10234000A06800280ED0FFF773F9009006E0FFF7B1
:102350006FF90099411A404881421FD830698005C1
:10236000F5D50DE0FFF764F9009006E0FFF760F99E
:102370000099411A3848814210D830698005F5D457
:10238000002F04D0A96B012000078143A9632078A6
:10239000800630D53649A0694A1400E07DE0002867
:1023A00016D0AB6801200343AB606B6B03436B63D8
:1023B000086A10430862FFF73BF9064604E0FFF79E
:1023C00037F9801B022868D8A8688007F7D512E083
:1023D000A86840084000A860086A90430862FFF7B8
:1023E00027F9064604E0FFF723F9801B022854D89A
:1023F000A8688007F7D4A06A002853D0E9680907C5
:10240000890F032950D0012636060228286805D0F6
:10241000B0432860FFF70CF9044640E0B043286061
:10242000FFF706F9074604E0FFF702F9C01B022890
:1024300033D828688001F7D4216BE06AEA68084342
:10244000616BFD231B049A4311430843E86028682D
:1024500030430FE0001002408813000000E000004D
:10246000E8AC00084C000020401002400070004022
:10247000000001402860FFF7DBF8044604E0FFF7A6
:10248000D7F8001B022808D828688001F7D509E092
:10249000FFF7CEF8001B022801D90320F8BD2868F9
:1024A0008001F5D40020F8BD0120F8BD30B501460B
:1024B00020310A78012A15D001220A7002234B70BC
:1024C0000468CA23636204685323636203689C68D8
:1024D00020252C439C600068FF2343624A70002043
:1024E000087030BD022030BD10B506F089F910BD6E
:1024F000F8B5054604462035287801281DD001206E
:102500002870022068702268CA2050622268532016
:102510005062FF2001300026FF2781421CD1216834
:102520008A6882438A60206881680122120391438D
:102530008160FFF77DF8009009E00220F8BDFFF709
:1025400077F80099411A7D20C00081421BD820688D
:10255000C068C007F3D020E02068816801225202E1
:102560009143816020688168120191438160FFF787
:102570005FF800900DE0FFF75BF80099411A7D20AD
:10258000C000814205D920684762032068702E7020
:10259000F8BD2068C0688007EDD52068476201203B
:1025A00068702E700020F8BD10B500680B464068BA
:1025B000C021C94301400002000ECC04D870E40ED3
:1025C0005C708C06A40E0904490F9C701970002AD7
:1025D0000AD103F00BFBD870587803F007FB587052
:1025E000987803F003FB9870002010BD30B50B46BF
:1025F0000168896A5960016809694904490C996050
:10260000006804680F482146014088024D04800E8E
:1026100018706D0E49065D70490E99706102490E81
:1026200040242140D970002A0AD103F0DFFA187043
:10263000587803F0DBFA5870987803F0D7FA98705E
:10264000002030BD7F7F7F0070B5040005D0254697
:1026500020356878002802D006E0012070BD0020F7
:102660002870204600F042F8022068702168CA20D5
:102670004862216853204862204603F0CAFAFF21CD
:102680000028206803D0416204206870E5E7826872
:10269000154B1A408260226890686368A6691843E7
:1026A00023693343184390602268E0681061206812
:1026B000026923891B041A4302612068C2688023CF
:1026C0009A43C2602068C26C92089200C264E269B8
:1026D000606902432068C36C1A43C2642068416287
:1026E00001206870002070BDBFFF8FFF00B597B05C
:1026F0000420009000200A90FF20013002906846DC
:10270000FFF7A6FC002801D0FEF75EFC20200E900B
:10271000C0020F900EA8FFF7C5FA002801D0FEF7FF
:1027200053FC08480169012292041143016100220F
:1027300011460220FFF7BAF90220FFF7A3F917B0FC
:1027400000BD000040100240FEB50646044620369B
:1027500030780B46012842D0012030700220707082
:1027600020681D46002720358068002A39D04006A1
:1027700055D5187803F03AFA287803F037FA197823
:102780009878090408435978DA7809021204114349
:102790000843297809060843D96908435969084359
:1027A000054699695868084300902168CA20486224
:1027B000216853204862FF205A6A013080218242FA
:1027C0004AD122689368834393602268D0680840A6
:1027D000FF388238D060FEF72BFF019029E00220FD
:1027E000FEBD400600D4DF70187803F007FA02043B
:1027F000587803F003FA00020243987803F0FEF9D8
:102800000243D87800040243287803F0F7F9000661
:102810000243D8690243586902431546C1E7DF7095
:10282000AAE7FEF705FF0199411A7D20C000814209
:102830002AD82068C068C007F3D02068C561216825
:102840000098486420688168FF220132114381604A
:1028500020688168120130E02068826801235B02F1
:102860009A4382602068C2680A401D495118C160BD
:10287000FEF7DEFE01900EE0FEF7DAFE0199411A46
:102880007D20C000814206D92168FF2048620320D4
:1028900070703770FEBD2068C0688007ECD5206876
:1028A00005622168009888642068816801225202CC
:1028B00011438160206881681201114381600948D9
:1028C0000268012149040A43026082680A43826067
:1028D0002168FF2048620120707037700020FEBD23
:1028E0007FFDFFFF00040140F8B505460446203592
:1028F00028780B46012815D0012028700220687026
:102900005878002A10D003F071F9987803F06EF926
:10291000D8789E7800040643587819780002490355
:10292000084316E00220F8BDC10603D5EF21084098
:102930000A305870D87803F061F90604587803F02B
:102940005DF900020643987803F058F906431878B9
:10295000400306432168CA20486221685320486228
:10296000204603F056F90027002811D110480640F0
:10297000206846602068C16880229143C160206859
:10298000806880060CD4204600F08CF8002807D020
:102990002168FF204862042068702F700120F8BD74
:1029A0002168FF204862012068702F700020F8BD68
:1029B0003FFFFF00F8B506460446203630780D4646
:1029C00001280ED00120307002207070206800278E
:1029D0008068002A07D040061AD5287803F006F947
:1029E00017E00220F8BD400600D4EF70287803F00D
:1029F00005F90204687803F001F900020243A8789F
:102A000003F0FCF80243E8780004024300920BE074
:102A1000EF702978A878090408436978EA780902F0
:102A200012041143084300902168CA2048622168BB
:102A300053204862204603F0ECF800281FD11849C3
:102A4000009808402168086020688168012292048B
:102A5000914381602969E868084321688A681043C6
:102A600088602068C16880229143C16020688068C6
:102A700080060CD4204600F015F8002807D0216805
:102A8000FF2048620420707037700120F8BD216873
:102A9000FF2048620120707037700020F8BD0000F0
:102AA0007F7F7F0070B504460068C168A022914313
:102AB000C160FEF7BDFD7D260546F60006E0FEF787
:102AC000B7FD401BB04201D9032070BD2068C0682B
:102AD0008006F4D5002070BD70B5040006D02546F0
:102AE0004035687C0026002802D005E0012070BD3A
:102AF0002E74204600F032F80220687420680168C5
:102B0000402291430160A168606822690843E1683E
:102B100011430843616901220843A169520211402F
:102B20000843E1690843216A0843A16A0843216810
:102B30000860A0690421000C0840616A084321680C
:102B400048602168E06A08612068C1699200914389
:102B5000C161666501206874002070BD7047F8B5DA
:102B6000044600276846078026464036707C0128C8
:102B700002D0707C22287ED100290CD0002A0AD0F5
:102B8000002B08D0307C012875D001203074707C77
:102B9000012802D003E00120F8BD3220707467657F
:102BA000A263A387E3872163A386E386A764E76420
:102BB0000125A06A6D03A84207D120680168A943D6
:102BC00001602068016829430160206801684906A6
:102BD00003D401684022114301600121FF20E26813
:102BE000C90205308A42616866D1002904D0814259
:102BF0000CD1E08E012809D1206B21680088C860C3
:102C0000206B801C2063E08E401EE086E08E002852
:102C100043D1A06AA84246D120680168012212036C
:102C2000114301603FE02068C068A16B0880A06B81
:102C3000801CA063B0E0002202212046069B04F025
:102C400001F800287DD1206B21680088C860206BC6
:102C5000801C2063E08E401EE086E08E002808D1B4
:102C6000A06AA84205D1206801680122120311431D
:102C70000160002200E0CCE001212046069B03F029
:102C8000E1FF00287FD12068C068A16B0880A06B9D
:102C9000801CA063E08F401EE087E08E0028CAD130
:102CA000606800287BD1002201212046069B03F0AA
:102CB000C9FF002867D1B6E7002904D081420BD1B3
:102CC000E08E012808D1206B411C21632168007827
:102CD000C860E08E401EE086E08E002845D1A06AE4
:102CE000A84205D120680168012212031143016046
:102CF000002201212046069B03F0A4FF002842D1B8
:102D00002068C068A16B087046E0002202212046BE
:102D1000069B03F097FF002835D1206B411C2163EF
:102D200021680078C860E08E401EE086E08E0028B2
:102D30000AD1A06AA84207D12068026801210903CC
:102D400000E020E00A430260002201212046069BA9
:102D500003F078FF002816D12068C268A06B411CE0
:102D6000A1630270E08F401EE087E08E0028CCD186
:102D70006068002813D1002201212046069B03F041
:102D800061FF002802D00320F8BD08E02068C16878
:102D9000A06B421CA2630170E08F401EE087A06A16
:102DA000A8420FD1002201212046069B03F04AFFD2
:102DB000002802D0606D02210EE02068C0686946DC
:102DC00008800888012280212046069B03F03AFFF4
:102DD000002804D0606D202108436065D3E70120FE
:102DE0007074A06AA84211D120688168C943C906DD
:102DF0000CD4616D0222114361650168A943016031
:102E000020680168294301603774C4E637740020E4
:102E1000BAE70220B8E770B5040005D02546603552
:102E2000687A002802D006E0012070BD00202872D8
:102E3000204600F027F824206872206801684908BD
:102E400049000160606A002802D0204605F0ACFD10
:102E5000204605F03FFE0128E7D02068416809229E
:102E6000D20291434160206881682A2291438160A7
:102E700020680168012211430160204605F0FAFD37
:102E800070BD000010B50448816B0122520411434B
:102E9000816307F0A1FD10BD00100240FFB506469A
:102EA00004466036707A83B00D46202858D1002D34
:102EB0000CD00598002809D00120A16800038142A8
:102EC00007D12069002804D1E80702D0012007B00B
:102ED000F0BD307A012843D0012030720020E06636
:102EE00021207072FEF7A4FB019027464037059819
:102EF00038820598788218E0788A401E7882069891
:102F00000090002280212046019B05F0FBFE002856
:102F100018D10120A1680003814202D12069002854
:102F200012D02168287888626D1C788A0028E3D145
:102F300006980090002240212046019B05F0E2FE09
:102F4000002808D00320C2E728882168C005C00DEA
:102F50008862AD1CE9E72020707200203072B6E76D
:102F60000220B4E710B51248017800291ED10122D1
:102F7000027011480F49016000210164C161D3074B
:102F80008161436082638160C160016207234162A5
:102F9000C3630261C1620422426101630748416B5D
:102FA0004215114341630448FEF7DCF810BD0000F0
:102FB000A4000020002401409C06002000100240D4
:102FC0007CB51E49064609780020002934D01C48EB
:102FD0004168C9430907FBD41A4C606B6515284347
:102FE000606300211848FEF719F818480090184847
:102FF000019069461448FEF767F8A01401906946ED
:1030000000961148FEF760F80F48FEF7EDF9002131
:10301000C9430D48FEF789F90B48FEF79FF80A49A6
:1030200080B20A68936802263343936009680322DA
:103030000A60616BA94361637CBD0000A4000020AD
:1030400000700040001002409C060020FFFF0700B7
:1030500001100000014600200A0A00D00820084A9A
:10306000114201D004221043064A114201D002222B
:103070001043054A114201D0012108437047000066
:10308000F0F00000CCCC0000AAAA000038B50B2359
:103090001B07C518114B0FD01C152D1B18D02D1B4D
:1030A00019D0A542DD6A05D108242543DD62DB6A1B
:1030B000234007E08024F8E7DC6A01252C43DC622A
:1030C000DB6A2B40009311601146FEF7E9F938BD29
:1030D000DD6A0224E9E7DD6A0424E6E70010024025
:1030E00010B5FFF7B7FF810002484058002800D014
:1030F000804710BD6803002070B51C4615460E467B
:103100000846FFF7A7FF0A49002C0DD080000C509D
:10311000304601F0A9FB044600222946FEF7C6FC12
:103120002046FEF7AFFC70BD002280000A5070BD43
:103130006803002010B5D2B2FEF774FA10BD00008B
:1031400070B500240E48FFF73BFF0E4E0E4D0100F8
:1031500013D00E483246008B5043FCF7C9FFB042F3
:1031600001D9FE2409E0A84207D3401BFE214843B1
:103170004B210901FCF7BCFFC4B2204670BD000022
:1031800000000244B80B0000080700006000F81FB0
:1031900003494A690869496A50404840704700003D
:1031A0004000F81F70B51148FFF70AFF104C0100EE
:1031B0001AD0208B0F4A5043FCF79AFF05460E4861
:1031C000FFF7FEFE68430B49FCF792FF618B052277
:1031D000401A12035043E28B511AFCF79FFF0F2154
:1031E0004902401880B270BD0025E8E700000244A3
:1031F0006000F81FB80B0000000004480F494B6A3C
:103200000A69D218120EC2714B6A0A69D218120CDE
:1032100082710A8A8B8CD218120A42710A7C8B8CBA
:10322000D21802714A69120EC2704A69120C827079
:103230008A8A120A4270097D017070474000F81FA7
:10324000F0B587B014216846FCF7C5FF224CE06A50
:1032500001210843E062E06A08400590E06A022527
:103260002843E062E06A28400590E06A0426304383
:10327000E062E06A30400590E06A80273843E0620F
:10328000E06A6946384005900320019000200290D2
:103290001248009005200007FEF702F91048009040
:1032A00069461048FEF7FCF869460F48FEF7F8F843
:1032B00069460E48FEF7F4F8E06A40084000E06214
:1032C000E06AA843E062E06AB043E062E06AB843C3
:1032D000E06207B0F0BD000000100240FF9F000058
:1032E000FFFF00000004005000080050001C0050C8
:1032F00010B5104C607800281AD1FFF733FE0E4845
:103300000068804700F0FEF900F09CF807F042FBEF
:10331000FDF788FD0020FDF743FD0120FDF740FD8E
:103320000220FDF73DFD0320FDF73AFD012060700E
:1033300010BD0000A400002068AC000870B5410E6C
:10334000C0017D220023FCF7FDFE054600F072F867
:10335000044600E000BF00F06DF8001BA842F9D35E
:1033600070BD000070B505460C4600222048FFF7EE
:103370003DF9002229461E486668FFF715F900222C
:1033800021461B48FFF732F96068B042F1D1E87876
:10339000184A01465043C01C8308880726D01649A6
:1033A00068783D220646504302463C3A7000801E33
:1033B000C1408807D10F8918800F4910081AC0181A
:1033C000A978401E08180D493C2248436178E12342
:1033D000514322781B015A438918A2781018081803
:1033E000074A61688002511A401870BD0549D7E745
:1033F000A8030020B5050000A0AA99008051010093
:10340000FF03000050554400032070470148006846
:1034100070470000F403002000B587B0694605A896
:10342000FFF7A0FF0249096807B0401A00BD00007D
:10343000F403002000B587B0694605A8FFF792FFA6
:1034400007B000BD10B5084C207800280AD100F064
:103450004DF8FF2101310548FFF74AF800F076F8F2
:103460000120207010BD000054000020A80300209F
:1034700010B50D4C0021042000F074FC01200B4914
:103480004004486121688868C0040BD5C868C0053D
:1034900008D5C86880221040FF388238C8602046AE
:1034A000FFF722F810BD0000A8030020000401402F
:1034B00070B50446FFF7B0FF211A0B4D0220285EBD
:1034C000C01C814201D9002100E00121042000F04C
:1034D00049FC00F01FFC012802D10220285E241ABA
:1034E000204600F03FF870BD5400002010B514498C
:1034F000144886B0002412C01F210160846004615A
:103500001149446141600838FFF79EF86946CC755F
:103510000120487588750875002205A90948FFF73C
:10352000E3F9009401940494002269460548039449
:10353000FFF740FA0348FEF7B9FF06B010BD0000E0
:1035400000280040A8030020FF03000010B5044C31
:103550002046211D1830FFF705FF206010BD000038
:10356000F4030020F0B587B004461422454901A8B1
:10357000FCF718FE43485038406E009000F08CF87D
:10358000012041494003886140480299404A401A5D
:10359000A105890D081887B2A10A684680785342B0
:1035A00002E08918401C80B29942FAD26A46157925
:1035B000E122120102E0891A6D1CADB29142FAD2E9
:1035C0006A46547902E0641CA4B23C393C29FAD220
:1035D000927951188EB20121890203E07A1A761C81
:1035E00097B2B6B28F42F9D203E03C3E641CB6B249
:1035F000A4B23C2EF9D203E03C3C6D1CA4B2ADB2A7
:103600003C2CF9D203E0183D401CADB280B2182D1D
:10361000F9D26946C978890769464A782FD01D4989
:10362000491E515C814202D2FCF762FD08461749EF
:10363000CA1B14492C394A60052252068A618E70D1
:103640004C700A460D70203210706846C079C87000
:103650000020C861FF2248610132C8604A620861E7
:10366000024608462438FFF76FF801A96846FFF7BD
:1036700079FE012004494003886207B0F0BD054986
:103680000C31CDE7F803002000040050FF030000D8
:1036900080AEFEFF09AD000810B5FF2101310748DB
:1036A000FEF726FF05480168C86880221040FF38F1
:1036B0008238C86002499002486110BDA80300200A
:1036C0000004014010B57D2105F0E9FE4906C0095E
:1036D000084310BD10B5410EC0017D220023FCF748
:1036E00031FD10BD01B582B00020C0430090012320
:1036F00001AA02A90248FFF732FA684680880EBD87
:103700001004002010B51C481A4901601C4A1B4BCC
:103710000021126803E05208491C072901D29A428D
:10372000F9D84A078B07D20FDB0F52011B011A434E
:10373000C90700D008210A43C261002181600161EC
:103740004161FF22C1600532816242600122016253
:103750005202826141620B48416B82141143416302
:103760000548FFF7B9F9002801D0FDF72DFC00F05E
:103770000BF810BD00300140100400208096980026
:103780004C0000200010024030B585B0142168467E
:10379000FCF721FD022001900290032003900020FD
:1037A00004906A4608210F48FFF770FC052424079F
:1037B0006A4640212046FFF769FC6A468021204680
:1037C000FFF764FC01210191CD0302916A4629466D
:1037D0002046FFF75BFC012229462046FFF7AAFCA2
:1037E00005B030BD0004005000BFFDE701688A69E4
:1037F000D243920701D400228A6200688169C943DA
:10380000C90703D08169012211438161704700001B
:10381000F7B5044600680E468069C043C0062BD445
:1038200020272546403520688069C043800612D590
:10383000701CF8D0FDF7FCFE0299401AB04201D886
:10384000002EF0D1606C384360646F700020A87067
:1038500028700120FEBD21681020C8612068C76162
:103860002046FFF7C3FF20684168044A11404160C9
:10387000606C04210843E7E70020FEBD00E800FE7D
:10388000F0B50668059C7568064F600D38438543A2
:103890008805800D110408431843204305437560D3
:1038A000F0BD0000FF63FF03F8B51D4617460E4646
:1038B000044609E0681C07D0FDF7BAFE0699401AD5
:1038C000A8420BD8002D09D0206881693046884372
:1038D0000FD00020B842EDD00020F8BD616C202050
:1038E00001436164403460700020A07020700120AA
:1038F000F8BD0120EEE70000F7B5002720260546B9
:103900000446403528E02046029A0199FFF780FFDF
:10391000002801D00120FEBD20688069C0438006D8
:1039200011D420688169C943490702D4218D002937
:1039300017D1C661206841680E4A11404160676432
:103940006E70AF7013E0FDF773FE0299411A019893
:10395000814208D8002806D020688069C04340070B
:10396000D1D40020FEBD606C304360646E702F7057
:10397000D0E7000000E800FE70B516460D4604468C
:103980000FE0324629462046FFF742FF002801D0CB
:10399000012070BDFDF74CFE801BA84208D8002D09
:1039A00006D020688069C0438006EAD4002070BD3C
:1039B000616C202001436164403460700020A0707D
:1039C0002070E5E770B516460D46044611E0324614
:1039D00029462046FFF71CFF002801D0012070BDBA
:1039E000681C06D0FDF724FE801BA84208D8002DD5
:1039F00006D020688069C0438007E8D4002070BDED
:103A0000616C202001436164403460700020A0702C
:103A10002070E3E710B507A1095C07A007F034F8B0
:103A20000C480021017102214171002100F032F99E
:103A300010BD0000414243007377697463682074CD
:103A40006F20636C61737320256320646F6E650A59
:103A50000D0000007800002010B503A007F014F856
:103A6000002000F093F810BD4A4F494E45440A0D1E
:103A70000000000070B5224C2160A06021A007F07A
:103A800003F826461436317820A006F0FDFF012504
:103A9000715D22A006F0F8FF6D1C082DF8DB1AA05E
:103AA00006F0F2FF20481F4901602049416020498B
:103AB00081602049C160A06811490068091D086043
:103AC0000522194800F0A0F9174D02201035287082
:103AD000206800782871284600F04EFC07202870E6
:103AE000206880782871284600F046FC0020287065
:103AF0002871284600F040FC012000F0A5FE70BDB2
:103B0000A80000204F5441410A0D0000417070454B
:103B100075693D2025303258000000002D253032D7
:103B200058000000314900080C0800203549000801
:103B30008D490008CD49000810B586B000216846BF
:103B400001700A48019008300290083003901C3838
:103B5000006841786846017401A91EC904481EC066
:103B6000684600F02FFD06B010BD0000B400002034
:103B7000FC0700200EB501216846017000F07EFBB5
:103B800068460079012800D000200EBDFEB506462B
:103B9000002468462746047000F070FB68460079F0
:103BA000B04223D03100124E124D02D002291DD155
:103BB0000DE000281AD16846077100F0DDFB0028EF
:103BC00003D1B068816900200FE02C460EE0002888
:103BD00000D02C46022069460871684600F0CCFBF4
:103BE0000028F2D1B0688169022088472046FEBDD6
:103BF000A8000020FFFFFFFF10B542791849022AF4
:103C00001DD0032A0DD0632A0AD100688078642869
:103C100023D000208870002818D012A006F034FFAE
:103C200010BD01790129FBD100680078002803D07C
:103C3000012801D00228F3D1FFF7A8FF10BD0279B7
:103C4000012AFBD1006800781040E3E708A006F0E5
:103C50001BFF0220FDF7D6F810BD0120DAE70000B7
:103C6000580000204C4544204F4E0A0D0000000033
:103C70004C4544204F46460A0D00000010B504484C
:103C80000021017102214171002100F003F810BDF3
:103C90007800002030B585B00D46044606F0AEF938
:103CA000002802D0002005B030BD207904A900F022
:103CB0006FFD01460020164A002904D069460870AD
:103CC0000290888120E0002D16D001216846017005
:103CD000617901712179818120680290082168460B
:103CE000C1731068417868468173684600F030FA05
:103CF0000028D8D00120D6E769460870607908719D
:103D00002079888120680290106840788873ECE7F9
:103D1000A8000020EFF3108172B607480268002A5D
:103D200001D0002005E04068002801D0012000E01B
:103D3000022081F310887047B401002010B5EFF322
:103D4000108272B6064B00295C6803D0012903D1AA
:103D5000044300E084435C6082F3108810BD0000DF
:103D6000B401002010B5EFF3108272B6064B0029A3
:103D70001C6803D0012903D1044300E084431C6084
:103D800082F3108810BD0000B4010020F8B517467A
:103D900005460A461948069C089E07994471837196
:103DA0001C0AC4711C0C04721B0E437281720B0A34
:103DB000C3720B0C0373090E4173D4B2C473104861
:103DC000FCF71AFF39460E48FCF726FF10220B4974
:103DD0000B48FCF729FF224629460948FCF724FF37
:103DE0000749C81FFD38FCF769FE064C601CFCF74C
:103DF000FDF92178000208433060F8BD4001002041
:103E00000C0E0020080D0020F8B50F4605001646E0
:103E10007ED028680028FBD068680028F8D0A86801
:103E20000028F5D0E8680028F2D0104602F0FDFD29
:103E300000286ED0754C0021E765A5652246E67323
:103E40001932117021746163A174216561650B21C0
:103E50006A4611703046694602F0D6FD002800D04F
:103E60000120E0740821684601706946E07B02F099
:103E7000CBFD674D05212870684601706946E07BDF
:103E800002F0C2FD68700C21684601706946E07B53
:103E900002F0BAFDE8600D21684601706946E07BDA
:103EA00002F0B2FD28610E21684601706946E07B90
:103EB00002F0AAFD68610F21684601706946E07B47
:103EC00002F0A2FDA8611021684601706946E07BFE
:103ED00002F09AFDE8611321684601706946E07BB3
:103EE00002F092FD2E462036707014216846017053
:103EF0006946E07B02F088FD686215216846017022
:103F00006946E07B02F080FD30721A21684601E0CC
:103F100077E078E001706946E07B02F075FD307370
:103F20001B21684601706946E07B02F06DFD7073ED
:103F30001C21684601706946E07B02F065FD28633C
:103F40001D21684601706946E07B02F05DFD6863F3
:103F50000021E07B02F062FD012737700A22062172
:103F60006A6028462972383842600172E968C16087
:103F70002969016169694161A9698161E969C16171
:103F80002030077002F0C4FD28462249383004F082
:103F900021FC7D212846C900383004F08BFC2846DE
:103FA0001D49683004F016FC28461C497C3004F09A
:103FB00011FC28461A49903004F00CFC2846194997
:103FC000CC3004F007FC04F0F3FB206328461649CC
:103FD0004C30016015498160154901611549416006
:103FE0001549164DC160A9688847E869804706F001
:103FF000CBFC6774296E38468847686B8047002081
:10400000F8BD0320F8BD0A20F8BD0000D80000204C
:10401000E00B0020694A000899540008B1530008D9
:1040200011540008294A000889520008B14C0008C0
:1040300089510008755300080952000868AC00084F
:10404000F8B504461D4617460E460D48FCF7D4FD4C
:1040500039460B48FCF7E0FDF2B221460848FCF770
:10406000E3FD0749C81FFD38FCF728FD054C601C1F
:10407000FCF7BCF82178000208432860F8BD000076
:104080000C0E0020080D0020FFB585B00F46044639
:1040900007ADF02200211D480E9E06F0BBFA1B4A18
:1040A0001021204605F0B6FE10220021684606F0D9
:1040B000B1FA012168460170062239466C46401C5F
:1040C00006F090FA02222946E01D06F08BFA0F4A0C
:1040D0006846089905F073FE10220021684606F034
:1040E00099FA02216846017006223946601C06F0E2
:1040F00079FA02222946E01D06F074FA034A314695
:10410000684605F05CFE09B0F0BD0000180D002007
:10411000F8B517460E4605461C46F02200210B480E
:1041200006F078FA094A1021384605F073FE074A6E
:104130002146284605F043FE102E06D32146284688
:10414000024A1031103005F03AFEF8BD180D00207B
:10415000F0B504460026022087B035463746049065
:10416000002C5BD04248406B002802D0012007B0F1
:10417000F0BD002069460872014614223D4806F051
:1041800049FA3C4801214170394841732278002A9C
:1041900004D0012A0AD0032A29D11AE001736B4600
:1041A0001A7A0127D206D20E403207E0E27B027370
:1041B0006B461A7A0127D206D20E80321A722679FD
:1041C000A2680192A2890E2500926557E02E25D89B
:1041D0000DE001736B461A7AE0231A436B461A729C
:1041E00062680192012722890A2500926557012100
:1041F0006A46117520490691097B91751C4805A9ED
:10420000C07B02F001FCA84200D3054668B2002F33
:1042100022D0174D2979002902D012E00320A6E709
:104220006946087306980422007B887303A9E87B1B
:1042300002F062FC0028F1D00F496846007B20396B
:104240004870314602A8009B019A04F081F904905D
:10425000002803D000206871049888E70548217879
:104260000170034801221930017811430170F3E70E
:10427000D8000020D80C0020C80B0020F8B500257D
:104280000446002819D03A49277838480A46383277
:10429000C67B3B0005F01BF91F1315181A1C1F21C4
:1042A0002426282A313C3A4347494B4D4F51535716
:1042B00055595B5D5F61636567000320F8BD007C55
:1042C00000E0C07820714FE00079FBE7806C00E0EF
:1042D000C06C606048E02748FBE726481030F8E7EC
:1042E000407CEFE7807CEDE7192012E0204920397F
:1042F000486C896CA160606036E01D492039084631
:104300007C30C96F40686160A0602DE0172000E03C
:10431000162069460870304602F076FBD9E714484B
:1043200020300078CEE7C868D3E70869D1E748694C
:10433000CFE78869CDE7C869CBE75078C2E748780E
:10434000C0E71078BEE70878BCE7406AC1E7806A3A
:10435000BFE7006ABDE74868BBE7087AB2E7486B89
:10436000B7E7506BB5E702252846F8BDD800002016
:10437000A80B002088080020F0B5002689B004466C
:10438000002806D08B4FB88EC00704D0012009B09A
:10439000F0BD0320FBE7884D864822782946C07B84
:1043A00020310191497B130005F091F81F11212460
:1043B000272A2D333C42F1456C827E8D94979A9D3D
:1043C000A1A4B3D3C4E2E5F1E8F2F8FBF10020794F
:1043D0003874002804D0012805D0022803D103E056
:1043E0007648406B8047E2E00020787139E0207920
:1043F000F870DCE020793871D9E06068B864D6E004
:104400006068F864D3E0616800296FD010226C48BE
:1044100005E06168002969D069481022103006F073
:10442000E1F8C4E0207965497874096E8847BEE0F8
:104430002079B874BBE0237A6A4613755175062259
:1044400005A902F059FB002850D05B48A26820382B
:10445000616882644164387C022812D1F8780028AF
:104460000FD05648406B804753480821F0300090E9
:1044700001982A7A41566B68F87B01F02DFE01F015
:1044800023F894E0237A6A4613755175062205A92C
:1044900002F032FB002869D04748A36820386268E0
:1044A0008021C2670B5082E061680391012102E024
:1044B0006168039100216A46117403A901F0FCFBB5
:1044C000002853D073E02079411E0E294ED801995F
:1044D00008706CE06068E86069E06068286166E028
:1044E0006068686163E06068A86160E03EE0606801
:1044F000E8615CE021796A461175052205A902F0A0
:10450000FBFA002832D06846017D2B4838304170D4
:104510004DE0227969460A7501990A7B69468A75D8
:10452000042205A902F0E8FA00281FD06846007DA1
:1045300068703CE021796A461175082205A902F0ED
:10454000DBFA002812D06846017D1B483830017024
:104550002DE021796A461175072205A902F0CCFAEF
:10456000002803D06846007D287020E003261EE066
:10457000606878621BE06068B86218E00E486168A5
:1045800038304160696012E00BE007E000E00DE0C8
:104590000948217938300172297208E0606868633F
:1045A00005E0054861683830416300E00226304686
:1045B000EDE60000D8000020A80B002068AC000841
:1045C00088080020FEB5044602200090002C51D03F
:1045D0003848406B002818D10C220021364806F0DC
:1045E00019F8354E01207070324D207808271935A2
:1045F000002806D001283FD0022848D0032830D117
:104600004DE02C48808EC00601D50120FEBD6068BB
:1046100000282FD0A06800282CD0E068002829D0DE
:1046200002F076FA287838432870207830702148D4
:104630006168C163A1680164E16841641021615649
:10464000C07B01F015FB1D494870002069460871C8
:1046500003460246014601A803F07AFF00900028B5
:1046600006D01449002048712878F72108402870A6
:104670000098FEBD0320FEBD287800223843287034
:104680002078307011460220FCF72EFBE6E73070F0
:10469000287838432870A08803F0CEFFDEE730701A
:1046A000287838432870227BA088A16803F0EEFFA9
:1046B000D4E70000D8000020EC0C0020A80B00205C
:1046C000FEB508AF70CF6F4670C700F001F8FEBDB1
:1046D000FFB50D46002681B01F460124F022314669
:1046E000294805F097FF284A1021039805F092FB0E
:1046F00026480A9941718771390AC171390C0172D2
:10470000390E41720B9981720B991F4F090AC172C0
:104710000B99090C01730B99090E4173203F18E0A6
:104720001A48194AC473641C1146A4B2203905F012
:1047300046FB00203118019A3B5C525C401C5A40F9
:104740000C9B80B25A541028F4D3103D1036ADB2F1
:10475000F6B2102DE4D2002D13D00B4A0B481146AF
:10476000C473203905F02BFB002008E0019A3118B2
:10477000525C3B5C5A400C9B401C5A5480B2A8428D
:10478000F4D305B0F0BD0000180D0020500100204A
:10479000F3B52B4887B00E46427869460A71007817
:1047A000284C0876207A617A4018C5B2002E32D0A3
:1047B00000216846017221794172E06A2049039024
:1047C00038394A78684602741D4F09784174183F99
:1047D000397B817420462C30009006AB01AA02A9D7
:1047E000E07B01F036FA397B6846817501794175C5
:1047F00009210175A07C002802D00A2069460875AD
:1048000005A9E07B02F000F9C0B27070A84205D3A0
:10481000401B307006E0032009B0F0BD3070002569
:10482000257265726846042141562A46079804F0AD
:104830007FFD002801D00020EEE70820ECE7000013
:10484000E00B0020D800002038B504466846054D2E
:1048500004700B226946E87B02F04EF9002800D074
:10486000EC7438BDD8000020FF220132811A90423A
:104870000CD009DC08280DD008DC012808D002285B
:1048800006D0042802D105E00F221202072070474B
:10489000052070470620704710B586B01421684681
:1048A000FBF799FC04200090084801900120084C77
:1048B00002906A4604212046FEF7E8FB054B0022E1
:1048C00004212046FEF718FC06B010BD00002110A0
:1048D00000040050898D000810B51348114901608B
:1048E00012494160002181600161416181610122C1
:1048F000C161C2600162FCF7EBFE002801D0FCF749
:1049000063FB00210848FCF799FE002801D0FCF762
:104910005BFB00210448FCF7B6FE002801D0FCF741
:1049200053FB10BD0054004078040020BB7C700095
:10493000704700007CB50446407800281CD160799F
:10494000104D012802D1A868C069804705F056FBC8
:10495000002801D005F040FB607B01280CD1E078F5
:10496000E0280AD069464871207B0871A068009051
:10497000A8680169684688477CBD0349204605F060
:1049800043FB7CBDA8000020FC07002010B50446B6
:10499000007800280CD0012809D16078002806D1C1
:1049A00005F02CFB002802D0204605F01DFB10BDB1
:1049B0006078002802D0FFF7BFF810BD0248806879
:1049C0004069804710BD0000A8000020007804283E
:1049D00003D102488068C06900477047A8000020E2
:1049E000704700008307FF22DB0E9A408907090EFB
:1049F000994000280BDA0007000F083883080848A0
:104A00009B001818C36993430B43C3617047830825
:104A100004489B001B1818689043084318607047AF
:104A200000ED00E000E400E010B50B4803F08CFF5F
:104A30000A484179002905D001218173416B042284
:104A400091434163007C022805D10448202219309B
:104A500001781143017010BDAC0C0020D80000207B
:104A600010B505F09BFB10BDF8B500278D4803F08D
:104A70006BFF8D4D8D4C287881066DD5616B4A0694
:104A800004D540229143490849006163854A0107E2
:104A9000D4320026002901DBC10711D08149C03181
:104AA0004B78022B02D05378022B09D1636B5B0841
:104AB0005B0063632672637B4B710E7101278E600E
:104AC00061793943774F503F00292BD1010702D438
:104AD000C10703D126E01178002906D03978A27ADF
:104AE000914208D981070CD417E0507800280FD1E3
:104AF0006662A6720CE0800703D42672E06A401C4E
:104B0000E062A6726078002802D1606A401C606290
:104B1000606B40084000606304E0DF2108402870BB
:104B200000F0BAFC2878800717D55E4AC0321079A9
:104B3000012803D0607B217B88420ED9A673667161
:104B40006078002802D1606A401C6062607B50710E
:104B5000606B40084000606350E0A07B00284DD0AF
:104B6000A08EC0064AD4A673607B217B884232D2D5
:104B7000082830D8401C6073C0070DD01E2168463D
:104B80000170397B474F8170703F79784170694679
:104B9000E07B01F039FF7870012003F013FC00285E
:104BA00014D040480921C03041702672616B490819
:104BB0004900616366710671617B417139497039E1
:104BC000497881706078002815D017E02878DF21B7
:104BD0000840287012E00121E07B01F01FFF606BAC
:104BE0004008400060632F4826726671C03006712D
:104BF000617B4171E6E7606A401C6062606B81071F
:104C000002D5022188436063002811D07D21C900AC
:104C1000244803F04FFE234803F05EFE2878810706
:104C200034D5FD2108402870207C022820D021E0C6
:104C30002878C10707D0400840002870A06D01689F
:104C40001848C03088472878010707D5F721084061
:104C50002870A06D81681348D4308847607A002896
:104C600001D003F0DDFC2878DF2108402870D5E76B
:104C700000F02AFC2878400704D4A06D4168094858
:104C8000A83088472878FB2108402870C0B2C106A8
:104C900007D5EF2108402870A06DC1680248801E2A
:104CA0008847F8BD180C0020F1000020D800002033
:104CB000FFB595B00C4606460021FB4808910F90C1
:104CC000103012910D90F9480B9111910171183823
:104CD000C281189A0274F64A0D46127E4274C1705F
:104CE0008170417181600173417381744161017010
:104CF000F048406B8047ED48683803F025FE307877
:104D0000694608704109601E0290201FEA4F139106
:104D10001090012917D003297ED005297CD00729BE
:104D20007BD039460120F831487000F043FDE0485F
:104D3000DE4A4179037C447B1279007B00296DD0E7
:104D4000002A6CD1FEE1DA48C178002904D0D749A5
:104D5000012018394870B3E0D5480299D74D426C0C
:104D600089B26B1C701CFFF7D3F968460078287075
:104D7000109808AB81B2CE48426C2846FFF760F924
:104D800028192038417F027F09021143827FC07FAA
:104D900012040A43000608991043884247D1C248CA
:104DA000C34E10300090C04BB28B691C706CFFF783
:104DB0006BF96879297900020843A979090401434C
:104DC000B164287AE97900020843697A0904014349
:104DD000A87A00060843F064E87A4106490F000704
:104DE0007970000F3872287B0107B548090F0161FF
:104DF00001D1012101617D22D20051430161891855
:104E00004161AE48113C0D3004906846047504A918
:104E1000F07B00F036FF03E00EE081E18FE193E1EB
:104E2000A2490020143148700120F0707FE79F48AC
:104E30000721143041707AE7797B684681739B487B
:104E40009B4F183801796846417309210173B87C7A
:104E5000002802D00A206946087303A9F87B01F0F4
:104E6000D3FD21460D3909B2002900DA0021814223
:104E700000D96CE7B078717800020843F178090432
:104E80000143307902060A4389490692C96C05201C
:104E90008A42874918D00D6A0CE02A6806998A422E
:104EA00007D101211291291D0F9110310D916F6AC7
:104EB0000BE0AD6A002DF0D10B217C481838417011
:104EC00000F078FC19B0F0BD8F6A325C69460A7058
:104ED000401C0A92335C401C305C01021007000F3A
:104EE00008300990301919432038037F0B9A134377
:104EF000427F12021A43837FC07F1B0413430006C4
:104F000018430B90C81B81B20122D20308A80E914E
:104F1000914212D27F1801210197029000911098BE
:104F2000069B81B230460F9AFEF730FF08990B9826
:104F300088421AD10120119017E009B27A18012194
:104F400009045118149101910290109801220092C5
:104F500081B23046069B0F9AFEF718FF08990B980E
:104F6000884202D10120149F1190112069460873D4
:104F70004F4803A9C07B01F047FD0E99884205D830
:104F80004A480A2118384170476199E7119800286A
:104F90007AD04649002018394870129A8A700A9AC5
:104FA000D206D20F4A71886008734F611831404AA7
:104FB0004870D0625072129800280CD00846022225
:104FC000183802706A6ABA4203D1002A01D0082157
:104FD00075E76F6223E0139805280DD03448334AF3
:104FE00000238371183A1370806AB84215D10028E3
:104FF00013D00820507063E72D482C4B012282719A
:10500000183B1A70806AB84207D1002805D028489A
:105010000423193002781A43027025488762087801
:10502000012832D0224A002010720998201A001F4D
:10503000002863DD099D09986D1C621B121F1B4C23
:10504000305CD2B2183C0E92E07000280A9839D039
:10505000000707D018980821C3B2681EC2B23046B4
:1050600000F0C6FB154801210197009102907019CC
:10507000069B0D9A0E99FFF723FB1048A0600E982F
:1050800020730120607343E048E00A988006CCD585
:10509000074A002010720A98044A8006C00F08715F
:1050A000183A9074C1E7000088080020D80C00204E
:1050B000D800002068AC0008C80B0020A709002019
:1050C000A80B0020000708D02C48042302781A43BC
:1050D000027000200871A0741AE001212848009194
:1050E000019702907019069B0F9A0E99FFF7E8FA44
:1050F00018980021C3B222480E9A07E00A980007C8
:1051000006D018980821C3B23046099A00F070FB07
:105110001A48022201781143017008E60C21CCE6FE
:10512000711C2246164805F05DFA164803210170ED
:10513000002141701249816002990173E8E7022B56
:1051400002D005E0844203D90E48143803F0FCFB7A
:105150000C481438007A002800D0B3E60748202213
:1051600001781143017007480121A83803F0A2FB20
:105170000448A83803F0B0FBA4E60000F1000020CA
:10518000A7090020C00C002070B51C4C207C022810
:1051900002D01B48406B80471A48184D227E0146BA
:1051A0001935202614316379002A0BD00622002BF2
:1051B00000D042704A70207C02281BD028783043EF
:1051C000287070BD0522002B00D042704A70207CF0
:1051D00002280FD0206D03F0F1FA616E884206D3E9
:1051E0000848683803F0B0FB287830432870207CEA
:1051F0000228E6D100F068F970BD0000D800002058
:1052000068AC0008D80C002070B51C4C207C02282B
:1052100002D01B48406B80471A48184D227E014639
:105220001935202614316379002A0BD00422002B73
:1052300000D042704A70207C02281BD0287830436E
:10524000287070BD0322002B00D042704A70207C71
:1052500002280FD0206D03F0B1FA616E884206D3A8
:105260000848683803F070FB287830432870207CA9
:105270000228E6D100F028F970BD0000D800002017
:1052800068AC0008D80C0020FEB503F091FA364C4B
:105290000646207C022803D03448406B804701E05A
:1052A00000F012F9304DA0781935002700282AD0D7
:1052B0002F48216E03F0FEFA2D4803F00DFB207CF1
:1052C00002280ED02A48616E143003F0F3FA284801
:1052D000143003F001FB207C022802D06079002802
:1052E00020D012206946087202A9E07B01F08CFBF5
:1052F000616E41181E48503003F0DCFA1C485030F3
:1053000003F0EAFA0EE01A4804217C3047701430AA
:1053100041702878002801D101202870C0B22021D6
:10532000084328702878000704D511489030007889
:10533000002815D0A775207D607569460870E07853
:1053400048700196E07B01F0B3FB26656079002888
:1053500005D107487C304770A07A401CA072FEBD82
:105360000120A075E7E70000D800002068AC000825
:105370005C0C002010B50B48007C022803D00A48C2
:10538000406B804701E000F09FF808490220487018
:1053900014314870034820221930017811430170FC
:1053A00010BD0000D800002068AC0008D80C002018
:1053B00070B5144803F0C8FA134D0020114C28763C
:1053C000297D283421702146BC394A78E270497B16
:1053D0002174A97C6174A074E074287C022802D135
:1053E0000A48806B8047074AE87B6832114640399B
:1053F00001F04AFB0348B438C168A07C01F016FCF8
:1054000070BD00005C0C0020D800002068AC0008D3
:10541000F8B5154803F098FA134C144D2834287D3C
:1054200027462070F03F786A60602046D038407B85
:105430002074A87C60740126E674287C022802D0BF
:105440000020A07400E0A674074AE87B543211469D
:105450002C3901F019FB002804D0A07CF96801F078
:10546000E5FB2E76F8BD0000700C0020D80000206F
:1054700010B503490120487002A005F005FB10BDDE
:10548000580000205354494C4C414C495645204645
:1054900052414D450000000010B5064803F054FA93
:1054A00005481022416B91434163012002F08AFFBD
:1054B00010BD0000480C0020D80000200149012048
:1054C000087070475800002010B5FFF7A1FF02498F
:1054D0000220087610BD0000D8000020F0B5064676
:1054E00000242046002E01D0002A1ED10020F0BD4D
:1054F000355DAF1E3B0003F0EAFF091614160612D5
:10550000140E16061600641C1554E4B2401CC0B2FA
:10551000335D135400E01554401CC0B203E0A41CDA
:1055200000E0641CE4B2641CE4B28C42E0D3F0BD41
:1055300070470000F0B50C4687B0844600219848BB
:105540000C9D069141831E1E1746417100D1002516
:10555000EAB202706146934D0978297001210091E9
:1055600061460978490908D002293FD004293BD077
:1055700007297DD0022007B0F0BD00990446418381
:10558000681C0822216C05F038F8608B082208306E
:1055900080B260832818E16B05F02FF8608B08302B
:1055A00060838148C06980470146A083608B06AB59
:1055B0002954401C80B2090A2954401C6083C1B29E
:1055C0007848626CFEF73CFD608B06992954401CBC
:1055D00080B20A0A2A54401C80B20A0C2A54401C89
:1055E00080B2090E2954D7E001214171C178002908
:1055F00069D0012269460A7321786948CA09694657
:105600004A736A4AC06A04905078087510784875E1
:1056100010462030007B8875614813462C3000907E
:105620002C3803A9C07B521C00F013FB81012078A9
:10563000BF22104008435A4920708979002905D0BB
:10564000574A002191712021084320705448C16CB1
:1056500054480A0A417082700A0CC270090E017126
:10566000217841714E49898C8171090AC17100E02C
:1056700088E04B49FF30097AFF3040184849082537
:105680004A7A4A49823904F0ADFF4548017A407AA6
:105690000818C1B24248002E01721FD00278002AB9
:1056A0001CD0C279002A22D00F291DD820783D4A6B
:1056B000030940181B010007000F034323705371B7
:1056C00000203B4C07E0072055E7235C53556D1C39
:1056D000401CEDB280B28842F7D308E03048002980
:1056E00005D0C279002A02D0314E017000272C4C1F
:1056F00000202F4AE07180322D48FFF7EFFE6072E4
:10570000002801D00120E071002E14D0217800295A
:1057100011D0244847556D1CEDB2002F27D0636A85
:10572000002240190092019302901E4AE36C103A45
:105730003046FEF7CDFF207806AB291861830020A4
:105740006E46626A0DC6174A1648203AE36CFEF7A9
:105750001DFB144A618B06985054030A521853706B
:10576000030C000E9370D070091D618316E00022B7
:105770002272636A401900920A4A01930290203A09
:10578000E36CD5E7002B09D00446002A06D0681C3C
:10579000314604F027FF2078401C60830020EAE6B1
:1057A000D8000020A808002068AC0008A80B002042
:1057B000A60A002010B50C484022416B11434163FA
:1057C0004079002801D0FFF72FF90749222219312B
:1057D0000878104308700121044803F06BF803486F
:1057E00003F07AF810BD0000D8000020180C00204B
:1057F000FFB505468BB0A94816460C46099026E130
:10580000285D641C801EE4B2030003F060FE0906FC
:10581000115E6AA1B0D8F1EFEE00A14900204870F6
:10582000285D0872641CE0B22A5C4A72401C4AE09F
:1058300000206946087708A908706946087208734D
:105840002819401E0490301B401C08759548934F42
:1058500002798A750999203F0A7B69464A757A78E8
:10586000CA753A780A76099908AB0A7869464A7681
:1058700003AA02A90192009107AA04A9C07B01F022
:10588000DAF80090C043400709D16846007F78707D
:1058900008A8007838706846017A099801700027D6
:1058A00006E0002203200099FBF71EFA7F1CFFB2DE
:1058B00068460521007BFAF71BFCB842F1D8684620
:1058C000007B2018401EC4B2C1E0295D7548641CED
:1058D0000122C1728A40C2830022E4B21146042030
:1058E000B3E0285D4006410F68464170285D641CA6
:1058F0000107090F68460170E0B2295C401CC0B284
:1059000001912A5C401C12021143C0B201912A5C31
:10591000401C12041143C4B208466421484301905C
:1059200060486946C07B01F0BAF80146C8434007A9
:105930000BD168460278099802725848019A2038BB
:1059400042626846427809984270002205207CE055
:105950005448FF21C06D002804D00068002801D001
:10596000804701460E988206920E06206DE0285D63
:1059700069460874641CE0B20391295C401CC0B203
:1059800000912A5C401C12021143C0B200912A5CB3
:10599000401C1204114364225143009100210191E3
:1059A000C0B22A5C401C6946C4B20A723D4803A9D1
:1059B000C07B01F051F800220146072045E0285D38
:1059C000641C0007000FE4B2002800D101207D21F3
:1059D000C900484331497D222039D200086180182E
:1059E00000224861114608202FE033E034E0FFE751
:1059F000285D00216A46641C11705170E4B2810672
:105A000001D501215170C10601D501211170000796
:105A1000000F907023481146C07B01F064F8401CD1
:105A200015D068460178099801736846417809984D
:105A30004173684680781C49085CFAF7E3FD174912
:105A400000222039086311460920FBF74DF9B442C2
:105A500000D2D5E60FB0F0BD285D69460870641C21
:105A6000E0B2295C401CC0B201912A5C401C1202C9
:105A70001143C0B201912A5C401C12041143C4B20C
:105A8000084664214843019006486946C07B00F0FF
:105A900030FB002201460A20D7E70000C80B002097
:105AA000EC0C0020D80000202CAD000870B50023BD
:105AB000294D2A4C1A46A84202DA012300202071FF
:105AC000264800298569C06907D0834220D0002B71
:105AD00000D00222012D0AD00AE0AB4218D0002BE0
