:020000040800F2
:1000000088120020D500000845430008113400087C
:1000100000000000000000000000000000000000E0
:1000200000000000000000000000000067650008FC
:1000300000000000000000006D4E0008697F00080D
:10004000E7000008E7000008B7540008E7000008D0
:10005000E70000086D0F00087D0F00088D0F0008F5
:10006000E7000008E7000008E7000008E7000008D4
:10007000E7000008E7000008E7000008E7000008C4
:10008000E7000008E7000008E700000800000000A3
:10009000E7000008E7000008E7000008E7000008A4
:1000A000E7000008E7000008E7000008E700000894
:1000B000F7850008E700000800000000E7000008DE
:1000C0000348854600F078FC004800476596000824
:1000D000881200200448804704480047FEE7FEE7F6
:1000E000FEE7FEE7FEE7FEE7FD7F0008C10000082F
:1000F00030B50B46014600202022012409E00D46C0
:10010000D5409D4205D31D469540491B2546954047
:1001100040191546521E002DF1DC30BD70B500248B
:100120002546002801DA01244042002901DA012590
:100130004942FFF7DDFFAC4200D04042002C00D026
:10014000494270BDF0B51FB40646002082B0054696
:100150004024019100901BE0019922460F46304651
:1001600000F0F4FA049A059B801A994110D31046C6
:100170001946224600F0DAFA361A8F4101972246D4
:1001800001200021009F00F0D1FA38184D41009065
:100190002046641E0028DFDC019B00982946324679
:1001A00007B0F0BD03460B439B0703D009E008C925
:1001B000121F08C0042AFAD203E00B780370401C17
:1001C000491C521EF9D27047D2B201E00270401CA5
:1001D000491EFBD270470022F6E710B513460A46C7
:1001E00004461946FFF7F0FF204610BD0321001D0D
:1001F000401E037812021A43491EF9D51046704773
:10020000F8B502464A40D40F42004B0052085B0842
:100210009A4202D20246084611464A0023D0C30D34
:100220004A00DDB2120EAD1A202D35DA4902012640
:10023000490AF6058A19002C00D0524220214F1B92
:100240001146B9402A411018C20D9A4221D0002C03
:1002500017D0012D08DCDA05801AD20F8019D207D9
:10026000DBB200F09FFAF8BDDA05801A01234000E6
:100270001B06C01880185A428018CA0F1043490044
:1002800007E04908C2071143DA05801A80194008BF
:10029000801800F07FFAF8BD61000122511A001B9E
:1002A000F7E70122D2075140AAE70122D2075040C6
:1002B000A6E70000F0B507460846584087B0C00FD3
:1002C000049048000E46590040084908BC1A88416D
:1002D00005D2384631461E4617460B4602465800A0
:1002E000400810434CD0300D039040055900400D9C
:1002F000490D0590401A0290402872DA1803012136
:10030000000B09050843019004980092002805D0CD
:1003100001995242002088410092019002984021A8
:100320000A1A0199009800F001FA05460C466B463E
:1003300007CB00F01CFAC0197141039A0E0D00237F
:10034000D71756401A467A40164344D0049A002ADA
:100350002DD0029A012A039A15DC1205C01A914188
:1003600001263605001C7141D20F059ED20700936D
:10037000019202962A46234600F05AFA07B0F0BDD1
:1003800038463146FAE71605224A0F46B218C01A17
:10039000B74101210905001C4F4100187F4111465A
:1003A00018187941E20F10436D19644113E0E20718
:1003B0006D0815436408C2071443039A0126120509
:1003C000C01A91413605001C7141CE0740083043E8
:1003D0004908C01851412A46234600F01CFACDE7CF
:1003E000FFE7049801224000C117121A00238B4135
:1003F00004983146C417381AA141EEE730B40124FD
:10040000E407634030BC55E730B40124E4076140A1
:1004100030BC4FE70000E0FFF0B51FB488B00B9987
:100420000998002448400999C00F490049080991DA
:10043000C0070B990090490049080B910999089849
:10044000A64608431CD00B990A98084318D009986F
:1004500001244000420D4800410D09982405000385
:10046000000B204309900B980003000B20430B90D6
:1004700050181C494018002201901446104605E00F
:10048000002001460DB0F0BD032801DA034600E06C
:1004900003239C46C11A0AAE0AE05F0008ADED5B7B
:1004A0004F00F75B7D430027AA187C41491C5B1E67
:1004B0006145F2DD410004AB5A522104120C0A439B
:1004C000240C401C0828DFDB01980290009970463C
:1004D00001910090059B049A0799069800F0A8F9ED
:1004E000D0E700000DFCFFFFF0B50C465C4085B086
:1004F000E40FE40703944C00002664085900944676
:10050000490802460296224321D062460A431ED081
:100510006200570D4A000E032303550D01240246C5
:100520002C492405781B1B0B360B4018234326430C
:10053000614600901C46501AB44103D30098401CF9
:10054000009002E0921800985B41002803DA002036
:10055000014605B0F0BD0020012109050746864689
:1005600011E064461D46141BB54106D36546521B77
:10057000B341744607430C43A646CD0740084908DB
:10058000284392185B4105460D43EAD110461843B3
:1005900013D06046194650407140084306D060466B
:1005A000101AB34106D20122002306E000220123E3
:1005B000DB0702E00122D243531000987446010584
:1005C000381C6141029C039D0019694100F023F928
:1005D000BFE70000FD03000070B54B005B0803435C
:1005E0000BD04B005C0D002633466542B341D41757
:1005F000AD1AA34102DB0020014670BD1205301880
:10060000514170BD10B500229623114600F0CAF882
:1006100010BD00000EB5C217C10F5040CA074018E8
:100620000021054B0293019200910A460B4600F00F
:10063000FFF803B000BD0000330400000EB505490B
:100640000291002100910A460B46019100F0F0F85A
:1006500003B000BD3304000070B5CD0F4A0009039C
:100660000123090B1B0519430B4BED070024520D09
:100670009A4201DA002070BD074B34339A4203DC02
:100680009A1A00F063F802E00449511888402C439C
:10069000F1D0404270BD0000FF030000CDFBFFFF22
:1006A0004A0009030123090B1B051943094B10B527
:1006B000520D9A4201DA002010BD064B34339A42A3
:1006C00003DC9A1A00F042F810BD03495118884023
:1006D00010BD0000FF030000CDFBFFFFC20FD207DB
:1006E000400040080BD0C10D0723DB01C9184002B0
:1006F0000905400A1143C208400711437047002012
:100700000146704710B5002904DB0124E40740428C
:100710008C412146002B04DB1C460123DB0752429F
:10072000A341994200D1904210BD000010B5202A8B
:1007300004DB0146203A9140002010BD9140202367
:100740009C1A0346E3401943904010BD10B5202A7F
:1007500004DB0846203AD040002110BD0B46D340B0
:10076000D0402024A21A91400843194610BD10B56C
:10077000202A06DBCB170846203A1041C1170B434D
:1007800006E00B461341D0402024A21A91400843B2
:10079000194610BD002904DA401C490001D1400867
:1007A0004000704770B40024050C05D110240004EB
:1007B00002D1002921D01124050E01D100020834F4
:1007C000050F01D10001241D850F01D18000A41C5B
:1007D000002801DB4000641C002908D020252E1BC6
:1007E0000D46F540A14000D00121294308430106F0
:1007F0001B1B000ADB1D02D5002070BC7047DB0507
:10080000181880180029F8DA401C4900F5D170BC8E
:1008100040084000704710B5002B08DA0024401C47
:10082000614192185B411A4301D14008400010BD5C
:10083000F0B51FB482B005460C0003D0084607F09F
:1008400061FF02E007F05EFF203002460090214683
:100850002846FFF76BFF049B059A04460F46184392
:100860001143084314D0184610431BD00098402170
:100870000A1A18460599FFF769FF05460E46009AC1
:1008800005990498FFF752FF084305D0012004E0C2
:100890002046394607B0F0BD0020C11705430E437E
:1008A0002C43374300990E986305401A7905E40AF2
:1008B00000220C43FD0A0A3002D500200146E9E778
:1008C0000105101969410C9C0D9D00196941FFF744
:1008D000A2FFDFE7F8B50546480040080C4628436C
:1008E00004D06000184A400D904201DD2846F8BD52
:1008F00015493539884210DC88420BDB290D20036D
:1009000008432903014305D0E00F1049C0074118EF
:100910000020F8BD00200146F8BD161A4020821BB9
:1009200028462146FFF702FF074600912846214648
:100930003246FFF70BFF3A46009BFFF76CFF32464B
:10094000FFF7F4FEF8BD0000330400000000F03FA4
:100950004A0009030123090B1B0519430A4B10B573
:10096000520D9A4202DA0020014610BD064B343384
:100970009A4203DC9A1AFFF7E9FE10BD034BD21826
:10098000FFF7D4FE10BD0000FF030000CDFBFFFF0A
:1009900010B5002904DB0124E40740428C412146C4
:1009A000002B04DB1C460123DB075242A3418B4290
:1009B00000D1824210BD0000064C0125064E05E024
:1009C000E36807CC2B430C3C98471034B442F7D370
:1009D000FFF77AFB98A10008B8A1000870B58C1841
:1009E0000578401C6B075B0F01D10378401C2A116E
:1009F00006D10278401C03E006780E70401C491CAA
:100A00005B1EF9D12B0705D40023521E0DD40B70A9
:100A1000491CFAE70378401CCB1A921C03E01D78AE
:100A20000D70491C5B1C521EF9D5A142D8D3002081
:100A300070BD000038B50446064805490068FFF758
:100A400057FB604300E0401E00900028FBD138BDFA
:100A500040420F004C000020F8B504460068816851
:100A60008907890F012902D10168C90722D181684C
:100A7000114A10261140012500290ED18168294311
:100A800081600120FFF7D6FF00F0DCFD07460CE097
:100A900000F0D8FDC01B0A2807D9A06D3043A0651F
:100AA000E06D2843E0650120F8BD20680068C04380
:100AB000C007EDD10020F8BD17000080F0B589B067
:100AC0000C46074610220021684608F027FE6946BA
:100AD0002246084608F0BDFA6846007887260106D7
:100AE000684600290FDA00214318425C5B78520007
:100AF000DB091A434254491C0F29F5DBC17B02462E
:100B0000490071400DE000214318425C5B785200BF
:100B1000DB091A434254491C0F29F5DBC17B02460D
:100B20004900D173E21DF9325169102912D00178C0
:100B300009061BD500214518435C6D785B00ED0963
:100B40002B434354491C0F29F5DBC17B0346490065
:100B5000714019E000216218FF3201325378455C80
:100B6000491C6B4053701029F5DB26E00021451825
:100B7000435C6D785B00ED092B434354491C0F29FE
:100B8000F5DBC17B03464900D973E11D556980231C
:100B9000FA316B54002500E05D5453695B1C5361CE
:100BA000102BF9D300216218FF3201325378455CD3
:100BB000491C6B4053701029F5DB00216218104668
:100BC000FF32E0300132437C5278491C5340437479
:100BD0001029F3DB21461022F13104A808F086FD2C
:100BE0002246394604A808F034FA1022002168464B
:100BF00008F094FD09B0F0BD10B5044610220021A4
:100C0000F13008F08BFDFF20002115300151F0225A
:100C1000204608F083FD10BD0B4610B5024610219A
:100C2000184608F041FA10BDF0B50446FF308BB00D
:100C30000F4601300890E11D4069FA3100911039EA
:100C400015460791002843D010210E1AAE4200D35A
:100C500016460099B2B24018394608F047FD089888
:100C6000089940698019486110283AD3B54238D0B4
:100C7000002162181046FF32E0300132437C527886
:100C8000491C534043741029F3DB07992246084658
:100C900008F0DFF9BF19AD1B1AE000202118E03180
:100CA0004A7C3B5C401C5A404A741028F6DB1022F8
:100CB00002A8079908F01AFD02A92246084608F082
:100CC000C8F9102202A9079808F010FD103D10374E
:100CD000102DE2D8AAB23946009808F007FD08980E
:100CE00045610BB0F0BD0000F7B52B498022497A71
:100CF000294B511ACDB2197A5B7A8026F31A0A462B
:100D0000DEB2871E491C0124C9B2761E3B0007F0E3
:100D100028FD09060C06161A0C2906363F001E4B44
:100D2000AA4237D21D4CA05407E01B4BB24231DA25
:100D30001A4CA05401986054491C19721AE0164BC1
:100D4000B2421FDB26E0144EAD1EAA4222DA134B3C
:100D5000985401985854491CC8B202991954401C1F
:100D6000307207E00C4BAA4214D20C4CA0541972FA
:100D700007F0A6F8002408480121C1710AE0064BDB
:100D8000AA4207D2054CA05401986054491CEEE7D2
:100D90000220FEBD2046FEBDC00000204609002006
:100DA00010B502221449012386B000281ED0012864
:100DB00004D002281AD0032807D117E0CA6A1A43C0
:100DC000CA62C96AC907C90F059141000B4A800070
:100DD000515A009100210291032103910849019386
:100DE0000858694600F066FB06B010BDCC6A144393
:100DF000CC62C96A1140E7E700100240E89D000894
:100E00003C00002010B5054A4100515A044A8000B8
:100E10001058002200F010FC10BD0000E89D0008F2
:100E20003C00002010B5054A4100515A044A800098
:100E30001058012200F000FC10BD0000E89D0008E1
:100E40003C0000207047000000231A4619460EC0DF
:100E50000249016002494160704700000D093E00EF
:100E6000AB030500FFB5002085B00090054606469F
:100E700001900024770007980121C05BA14008423F
:100E80002FD028190C2203905043089A1258002A98
:100E900027D0059A002A01D1490722D00899411884
:100EA000082002910856021100070117069840B267
:100EB00004F041FD002814D00298407A01010E98F8
:100EC0000818C068002804D00198401CC0B20190E6
:100ED00007E0009A0F99039888540098401CC0B20C
:100EE0000090641CE4B2102CC5D31035761CEDB212
:100EF000F6B2102DBDD3109901980870009809B072
:100F0000F0BD000030B587B014216846FFF763F9E3
:100F1000032001900020029003204003104C009019
:100F2000E06A01210843E062E06A0840059005207C
:100F30006946000700F0BEFAE06A40084000E0623F
:100F4000606B0125AD052843606300F08BFA00F06B
:100F500099FA00F08FFA606BA843606307B030BD68
:100F60000010024010B502F00BF810BD10B50120C2
:100F700000F094FA022000F091FA10BD10B50420A0
:100F800000F08CFA082000F089FA10BD10B510208E
:100F900000F084FA202000F081FA402000F07EFA70
:100FA000802000F07BFAFF20013000F077FA01206A
:100FB000400200F073FA0120800200F06FFA012075
:100FC000C00200F06BFA0120000300F067FA012074
:100FD000400300F063FA0120800300F05FFA012073
:100FE000C00300F05BFA10BDFEE700000649800078
:100FF00009580648091803D0C14203D000207047A1
:101000000120704702207047549E0008702FFCFF9B
:1010100010B5094A0021CB00D458844207D89B1848
:101020009B68834203D9C8008018007910BD491C11
:10103000C9B21529EFD3FEE7C09C0008F8B50546F4
:1010400004464035287D0026012808D00120287557
:10105000206881688907890F01290ED101E00220EB
:10106000F8BD0168C90708D0A06D20210843A0651C
:101070000126002028753046F8BDA16DFF220132FF
:10108000914302221143A165C1688907890F00912C
:10109000C16889088900C16020688168920711438E
:1010A000816000F0CFFA07460EE000F0CBFAC01BDB
:1010B0000A2809D9A06D0221884310210843A065A0
:1010C000002028750120F8BD206880680028ECDB2E
:1010D0002068C168009A1143C160A06D800880003B
:1010E000401CA065C5E70000F8B506460D46403631
:1010F000317D01290DD00121317501688A685207BF
:1011000009D5816D202211438165002030750120B1
:10111000F8BD0220F8BD174B6A68D80547109A42FF
:10112000154C8A6A2B6812D05B035B0B1A438A62E8
:101130002968490305D5A1680143A1600A20FFF78A
:1011400079FC2868800312D5A06838430EE05B0361
:101150005B0B9A438A622968490302D5A1688143DF
:10116000A1602868800302D5A068B843A060002071
:101170003075F8BD01100000002701400068006CC8
:101180007047000070B5040006D0A06D264600250B
:101190004036002802D006E0012070BDE5653575B7
:1011A000204600F0D1F8A06DC00603D421688868FD
:1011B000400705D5A06D10210843A0653575EBE704
:1011C000A06DFF220132904302221043A06588687F
:1011D0008207920F5A48012A02D10A68D2072BD1FE
:1011E000032362689B079A4205D05B429A4202D071
:1011F0005B009A4209D10A69920092080A6121684B
:101200000A6963681A430A610CE00A69920092084D
:101210000A6181680F22920491438160816862684B
:10122000114381602168CA6818239A43CA60216803
:10123000CA68A3681A43CA608168012252069143B2
:1012400081608168228F5206114381602068816825
:10125000C90004D48168012212071143816020680B
:10126000C168384A1140C1602169E068022923D071
:1012700000210843216A226B4903520011430843AD
:10128000616B0843A16989030843E169C903084305
:101290002168CA681043C860A06A0146FF39C23994
:1012A00005D0E16A08432168CA681043C860606AD3
:1012B0000121012802D00BE00421DAE7206A00288E
:1012C00023D0A06D20221043A065E06D0843E065A7
:1012D000206C012820681FD00169C90703D001696B
:1012E00049084900016120684169C908C900416194
:1012F00020684169E26B11434161E565A06D80089A
:101300008000401CA065002070BD2068C2680123D9
:101310001B041A43C260DBE70269FF239B009A4368
:10132000026120680269636CE66C1A43A36C334364
:101330001A430261206802690A430261D3E7000090
:10134000002701401902FEFF7047F8B504464069C6
:10135000254640350E4608280BD02068C068C007D7
:1013600009D0A06D20210843A06500202875012028
:10137000F8BD082700E00C2700F064F9009011E0A8
:10138000701C0FD0002E05D000F05CF90099401AB7
:10139000B04207D9A06D04210843A065002028753C
:1013A0000320F8BD206800683842E9D0A06D012113
:1013B00049020843A0652068C16809058A0F0C210D
:1013C000002A1AD1226A002A17D10268120714D5FE
:1013D000826853070122002B08DB43688B4343607C
:1013E000A06D130298431043A06506E0A06D202372
:1013F0001843A065E06D1043E065A069002801D1A5
:10140000206801600020F8BD70B504462168002006
:101410008968490721D425464035297D01291CD0FA
:1014200001212975E169012904D02046FFF714FB49
:10143000002811D1A16D0A4A1140FF220132114347
:10144000A1650021E165297522681C2111602168D0
:101450008A6804231A438A6070BD022070BD0000B0
:10146000FEF1FFFF024841684908490041607047AA
:10147000005801400248416804229143416070478E
:101480000058014002484168022291434160704780
:101490000058014010B501F045FC10BD10B50449DD
:1014A0004A69024202D04861FFF7F4FF10BD000014
:1014B00000040140F8B500230124A7E027469F401F
:1014C0003A4070D04D68022D01D0122D14D1DD08A4
:1014D000AD002D1800952D6A5E07AC46F50E0F265F
:1014E000AE46AE406546B543AC460E697546AE4065
:1014F00065462E43009D2E624D68012D05D0022DBC
:1015000003D0112D01D0122D16D185680326AC46CB
:101510005D00AE46AE406546B543AC46CE68754606
:10152000AE4065462E43866046680D79BE43ED06A3
:10153000ED0F9D403543456006685F000325BD40C3
:10154000AE46AE430D79B446AE07B60FBE40654613
:101550002E430660C6687546AE438D68BD40354370
:10156000C5604D68ED0050D52B4D6E6B26436E6304
:101570009E082A4DB6007519AC46AD689E07360F19
:101580000F27B740BD4305273F07B84201D10027C9
:101590001AE0234FB84201D1012715E0214FB8428C
:1015A00002D1022710E030E01F4FB84201D10327DB
:1015B0000AE01E4FB84201D1042705E01C4FB84293
:1015C00001D1052700E00627B7402F436546AF60ED
:1015D000184D2E684F689643FF0300D516432E60C2
:1015E0006E684F689643BF0300D516436E60AE68C1
:1015F0004F689643FF0200D51643AE60EE684F6811
:101600009643BF0200D51643EE605B1C0A68154680
:10161000DD4000D052E7F8BD00100240000001405C
:101620000004005000080050000C00500010005052
:10163000001C005000040140002A01D08161704765
:101640008162704701480068704700005000002028
:1016500002480168491C01607047000050000020EA
:1016600010B506480168022211430160032000F012
:1016700007F800F007F8002010BD0000002002402D
:101680000020704710B50948816B02041143816343
:1016900000F042F800F038F80548016808221143CC
:1016A000016000F029F801F0EDFB10BD00100240D0
:1016B00000200240C106C90E01208840014908608F
:1016C0007047000080E200E0C106C90E012088409A
:1016D000014908607047000000E100E0C106C90E42
:1016E00001208840014908607047000000E200E0E6
:1016F00010B502F029FE10BD024801680215114321
:1017000001607047007000400248016842151143B3
:101710000160704700700040024801681022914348
:101720000160704700700040F8B566490746012522
:101730000020ED03624B634A4031102F6FD011DC63
:10174000012F77D0022F6CD0042F6BD0082F24D11B
:10175000C9680324240321407BD0BD026C10A94238
:101760007CD0A0E00326584C3604202F0BD0402F0D
:1017700035D0FF3F012F10D1C968314069D07C04BA
:10178000A1426BD096E00B690969012731403F0403
:10179000B94203D1990559E02846F8BD01256D04E9
:1017A000A94203D19907F8D54848F8BDB142FCD108
:1017B00011688903F9D51168032000050140012053
:1017C0000005091A09D0091A05D0814201D1404803
:1017D000F8BD2046F8BD3F48F8BD3F48F8BDC96890
:1017E0000125AD06294006D0A942F7D191688907A5
:1017F000F4D53A48F8BD11688901FBD5D068D168A5
:101800008002374D000F2D5C0802810FD068491C03
:10181000C0030AD41068C00605D5204606E045E09E
:1018200008E023E030E0184600E02E486843FEF769
:101830005FFCF8BDCC68A407A40F0CD0022C0DD01F
:10184000012C10D0032CF4D1096989050029A3DBF0
:10185000F8BD16E002E000F0D1F9F9E71168490798
:10186000F6D51846F4E700F0D9F9F1E7CC680C2674
:10187000344006D0082CF1D0042CF4D00C2CE3D04A
:10188000E6E700F0ABF9E3E7CC680326B6023440A4
:10189000F7D00127FF02BC42E0D07A109442E2D098
:1018A000B442D1D0D4E7A142DDD0D1E7916B490257
:1018B000E7D4CDE7012212049142D4D0C8E700005A
:1018C0000024F4000010024000093D008890000050
:1018D00020A1070040420F0080841E00006CDC0243
:1018E000009E000800127A00F8B5044600785E4DAC
:1018F000800672D55C4E0027403EB06BC00004D419
:10190000B06BA9050843B063012758480168C905B1
:1019100011D40168821511430160FFF793FE009016
:1019200005E0FFF78FFE0099401A642837D84F482A
:101930000068C005F5D532680321090560680A40D2
:101940000140914208D08103890F032904D13168F5
:10195000890301D50120F8BD2A69032109040A4041
:1019600022D0084090421FD0207880061CD52869DC
:101970002A6988430121C9040A432A612A698A43E2
:101980002A612861C0050FD5FFF75CFE009008E0D2
:10199000FFF758FE0099411A3548814201D90320CA
:1019A000F8BD28698005F3D561688803800F032896
:1019B00005D132680005824301400A43326028693C
:1019C000032261681204114008432861002F04D0EB
:1019D000B06B012109078843B0632078C00705D0A8
:1019E000E868A168800880000843E86020788007E4
:1019F00005D5E8680C218843E1680843E860207851
:101A0000400706D5E8680321890288432169084315
:101A1000E8602078000706D5E868032109038843B9
:101A200061690843E8602088C00506D5E86803219D
:101A300009048843A1690843E8602078400606D578
:101A4000E868012189068843216A0843E860207814
:101A5000000606D5E868032189048843E169084344
:101A6000E8600020F8BD0000401002400070004017
:101A700088130000F8B5054653480E460068C007B5
:101A8000C00FB0420AD250480168490849003143AA
:101A900001600068C007C00FB0426FD128784B4C7E
:101AA000800705D5E068F0218843A9680843E06015
:101AB0002878C00752D06868022817D0032818D0A9
:101AC0002168012818D08905002957DAE1688908BA
:101AD00089000143E160FFF7B5FD69680746022907
:101AE00012D003291CD0012926D033E021688903B4
:101AF000EAE721688901E7E74907E5E7FFF7A2FD83
:101B0000C11B3348814223D8E0680007800F0228B8
:101B1000F4D123E0FFF796FDC11B2D48814217D871
:101B2000E0680007800F0328F4D117E0FFF78AFD73
:101B3000C11B274881420BD8E0680007800F0128AD
:101B4000F4D10BE0FFF77EFDC11B2148814201D992
:101B50000320F8BDE0680007800FF3D11A48016840
:101B6000C907C90FB1420BD901684908490031437F
:101B700001600068C007C00FB04201D00120F8BD6D
:101B80002878400706D5E068072109028843E968FC
:101B90000843E0602878000707D5E0680721C902FC
:101BA00088432969C9000843E06000F037F8E1681C
:101BB000084A0906090F515CC8400749086003201C
:101BC000FFF75EFD0020F8BD00200240001002403B
:101BD00088130000F09D00084C00002004480549CF
:101BE0000068C968044A4905490F515CC8407047FC
:101BF0004C00002000100240099E000804480549DE
:101C00000068C968044A8904490F515CC84070479C
:101C10004C00002000100240099E000810B5184A30
:101C2000D1680C20084004280BD0082810D00C28BC
:101C300010D050680004410F0120C003491C8840A7
:101C400010BD1068C00601D50E4810BD0E4810BD6D
:101C50000E4810BD88020E4B000F185C0902D368B5
:101C6000890F491CDB0301D5084A05E01268D2063A
:101C700001D5044A00E0044A5043FEF739FA10BD8A
:101C80000010024000093D000024F40000127A0018
:101C9000009E0008F8B504460078FF4DC0074CD000
:101CA000E8680007800F022807D0E8680007800F67
:101CB000032809D1E868C00306D5286880033CD50D
:101CC0006068002875D038E0012062680004824214
:101CD00003D129680143296011E0052301211B0478
:101CE00089049A422A6802D10A432A60F1E78243B2
:101CF0002A602A6802400092286888432860606849
:101D000000280DD0FFF79EFC0646E44F04E0FFF7E5
:101D100099FC801BB8427DD828688003F7D50CE079
:101D2000FFF790FC0646DD4F04E0FFF78BFC801BBD
:101D3000B842F0D828688003F7D42078800741D5CE
:101D4000E8681F270007800F3F02012807D0E868D6
:101D50000007800F032809D1E868C00306D428686B
:101D6000400717D5E068012823D113E0E068002878
:101D700017D029680922914301432960FFF762FCCB
:101D8000064604E0FFF75EFC801B0228C3D82868E3
:101D90004007F7D568682169B843090208436860BD
:101DA00010E02868400840002860FFF74BFC06461A
:101DB00005E090E0FFF746FC801B0228ABD82868BE
:101DC0004007F7D42078C00676D5E868B44E0007FF
:101DD000800F0BD0E06900285DD02868FF21013119
:101DE00008432860FFF72EFC074644E0286880057A
:101DF00002D5E06900286ED0606A69683140884287
:101E000012D903F0F1FA0028AED16868616AB043D4
:101E1000084300E0E4E068606868218C0002000A82
:101E20000906084368600FE06968B14301436960CF
:101E30006868218C0002000A090608436860606A2D
:101E400003F0D2FA00288FD1606A410B0120C00351
:101E5000491C8840E968934A0906090F515CC8404B
:101E6000914908600320FFF70BFC25E0FFF7EAFB30
:101E7000C01B02288AD828688005F7D56868616A7F
:101E8000B043084368606868218C0002000A0906B4
:101E90000843686010E02968FF2001308143296011
:101EA000FFF7D0FB064604E0FFF7CCFB801B0228BF
:101EB00084D828688005F7D420787C4E000723D585
:101EC00060690028306910D0012108433061FFF7B4
:101ED000B9FB074605E009E1FFF7B4FBC01B022888
:101EE0007ED830698007F7D50EE0400840003061A9
:101EF000FFF7A8FB074604E0FFF7A4FBC01B02287E
:101F00006ED830698007F7D42078400761D5A86B78
:101F10000027C00005D4A86B012109070843A86366
:101F2000012763480168C90511D40168821511436E
:101F30000160FFF787FB009005E0FFF783FB009946
:101F4000401A64284CD85A480068C005F5D5FF20CF
:101F5000A2680130824203D131690143316111E04D
:101F600001218902002A07D005231B029A4203D1CE
:101F700032690A433261EFE7326982433261306984
:101F800088433061A06800280ED0FFF75BFB00900B
:101F900006E0FFF757FB0099411A404881421FD8DD
:101FA00030698005F5D50DE0FFF74CFB009006E0A9
:101FB000FFF748FB0099411A3848814210D8306930
:101FC0008005F5D4002F04D0A96B012000078143C0
:101FD000A9632078800630D53649A0694A1400E00C
:101FE0007DE0002816D0AB6801200343AB606B6B2B
:101FF00003436B63086A10430862FFF723FB06463E
:1020000004E0FFF71FFB801B022868D8A868800740
:10201000F7D512E0A86840084000A860086A90431D
:102020000862FFF70FFB064604E0FFF70BFB801B7F
:10203000022854D8A8688007F7D4A06A002853D093
:10204000E9680907890F032950D0012636060228BE
:10205000286805D0B0432860FFF7F4FA044640E052
:10206000B0432860FFF7EEFA074604E0FFF7EAFA0C
:10207000C01B022833D828688001F7D4216BE06A9E
:10208000EA680843616BFD231B049A43114308432C
:10209000E860286830430FE0001002408813000019
:1020A00000E00000F09D00084C00002040100240BD
:1020B00000700040000001402860FFF7C3FA0446AA
:1020C00004E0FFF7BFFA001B022808D82868800147
:1020D000F7D509E0FFF7B6FA001B022801D9032063
:1020E000F8BD28688001F5D40020F8BD0120F8BDB6
:1020F00030B5014620310A78012A15D001220A7034
:1021000002234B700468CA2363620468532363622A
:1021100003689C6820252C439C600068FF23436271
:102120004A700020087030BD022030BD10B505F0A7
:10213000B7FF10BDF8B505460446203528780128BC
:102140001DD001202870022068702268CA205062C9
:10215000226853205062FF2001300026FF27814271
:102160001CD121688A6882438A60206881680122C4
:10217000120391438160FFF765FA009009E00220A5
:10218000F8BDFFF75FFA0099411A7D20C000814237
:102190001BD82068C068C007F3D020E020688168A1
:1021A00001225202914381602068816812019143AB
:1021B0008160FFF747FA00900DE0FFF743FA0099BE
:1021C000411A7D20C000814205D920684762032062
:1021D00068702E70F8BD2068C0688007EDD5206853
:1021E0004762012068702E700020F8BD10B50068AD
:1021F0000B464068C021C94301400002000ECC04D8
:10220000D870E40E5C708C06A40E0904490F9C7013
:102210001970002A0AD103F01FF9D870587803F01A
:102220001BF95870987803F017F99870002010BDCA
:1022300030B50B460168896A59600168096949042B
:10224000490C9960006804680F48214601408802E3
:102250004D04800E18706D0E49065D70490E997020
:102260006102490E40242140D970002A0AD103F0AE
:10227000F3F81870587803F0EFF85870987803F076
:10228000EBF89870002030BD7F7F7F0070B50400B0
:1022900005D0254620356878002802D006E00120C8
:1022A00070BD00202870204600F042F802206870BF
:1022B0002168CA204862216853204862204603F002
:1022C000DEF8FF210028206803D0416204206870F6
:1022D000E5E78268154B1A4082602268906863685F
:1022E000A669184323693343184390602268E06865
:1022F00010612068026923891B041A430261206867
:10230000C26880239A43C2602068C26C920892001F
:10231000C264E269606902432068C36C1A43C26404
:102320002068416201206870002070BDBFFF8FFFF0
:1023300000B597B00420009000200A90FF200130E3
:1023400002906846FFF7A6FC002801D0FEF74CFE7D
:1023500020200E90C0020F900EA8FFF7C5FA0028AB
:1023600001D0FEF741FE08480169012292041143A1
:102370000161002211460220FFF7BAF90220FFF79F
:10238000A3F917B000BD000040100240FEB506469C
:102390000446203630780B46012842D001203070A8
:1023A0000220707020681D46002720358068002AB2
:1023B00039D0400655D5187803F04EF8287803F048
:1023C0004BF819789878090408435978DA780902A3
:1023D000120411430843297809060843D9690843C0
:1023E000596908430546996958680843009021686F
:1023F000CA204862216853204862FF205A6A01308F
:10240000802182424AD12268936883439360226884
:10241000D0680840FF388238D060FFF713F9019088
:1024200029E00220FEBD400600D4DF70187803F0DA
:102430001BF80204587803F017F80002024398785A
:1024400003F012F80243D87800040243287803F01E
:102450000BF800060243D869024358690243154647
:10246000C1E7DF70AAE7FFF7EDF80199411A7D2077
:10247000C00081422AD82068C068C007F3D0206815
:10248000C56121680098486420688168FF22013294
:102490001143816020688168120130E02068826801
:1024A00001235B029A4382602068C2680A401D498A
:1024B0005118C160FFF7C6F801900EE0FFF7C2F8AF
:1024C0000199411A7D20C000814206D92168FF2070
:1024D0004862032070703770FEBD2068C0688007B6
:1024E000ECD52068056221680098886420688168BE
:1024F0000122520211438160206881681201114358
:10250000816009480268012149040A430260826827
:102510000A4382602168FF20486201207070377092
:102520000020FEBD7FFDFFFF00040140F8B5054619
:102530000446203528780B46012815D00120287044
:10254000022068705878002A10D002F085FF987831
:1025500002F082FFD8789E780004064358781978F4
:1025600000024903084316E00220F8BDC10603D566
:10257000EF2108400A305870D87802F075FF060441
:10258000587802F071FF00020643987802F06CFF61
:1025900006431878400306432168CA204862216830
:1025A00053204862204602F06AFF0027002811D11C
:1025B00010480640206846602068C1688022914328
:1025C000C1602068806880060CD4204600F08CF83A
:1025D000002807D02168FF204862042068702F700F
:1025E0000120F8BD2168FF204862012068702F702B
:1025F0000020F8BD3FFFFF00F8B506460446203630
:1026000030780D4601280ED0012030700220707005
:10261000206800278068002A07D040061AD528784D
:1026200002F01AFF17E00220F8BD400600D4EF7058
:10263000287802F019FF0204687802F015FF000202
:102640000243A87802F010FF0243E8780004024336
:1026500000920BE0EF702978A878090408436978A4
:10266000EA78090212041143084300902168CA2045
:102670004862216853204862204602F000FF00288B
:102680001FD11849009808402168086020688168B7
:1026900001229204914381602969E8680843216816
:1026A0008A68104388602068C16880229143C160B5
:1026B0002068806880060CD4204600F015F80028B9
:1026C00007D02168FF204862042070703770012015
:1026D000F8BD2168FF20486201207070377000202B
:1026E000F8BD00007F7F7F0070B504460068C168B8
:1026F000A0229143C160FEF7A5FF7D260546F600A6
:1027000006E0FEF79FFF401BB04201D9032070BDD9
:102710002068C0688006F4D5002070BD70B5040044
:1027200006D025464035687C0026002802D005E00A
:10273000012070BD2E74204600F032F8022068742B
:1027400020680168402291430160A16860682269A5
:102750000843E16811430843616901220843A16904
:10276000520211400843E1690843216A0843A16A03
:10277000084321680860A0690421000C0840616AD0
:102780000843216848602168E06A08612068C169DF
:1027900092009143C161666501206874002070BD9C
:1027A0007047F8B50446002768460780264640363D
:1027B000707C012802D0707C22287ED100290CD0A8
:1027C000002A0AD0002B08D0307C012875D00120C7
:1027D0003074707C012802D003E00120F8BD322063
:1027E00070746765A263A387E3872163A386E3868A
:1027F000A764E7640125A06A6D03A84207D1206899
:102800000168A943016020680168294301602068CC
:102810000168490603D40168402211430160012187
:10282000FF20E268C90205308A42616866D100294A
:1028300004D081420CD1E08E012809D1206B21689F
:102840000088C860206B801C2063E08E401EE086FC
:10285000E08E002843D1A06AA84246D120680168D2
:1028600001221203114301603FE02068C068A16BA0
:102870000880A06B801CA063B0E0002202212046EB
:10288000069B03F017FE00287DD1206B216800888D
:10289000C860206B801C2063E08E401EE086E08EC6
:1028A000002808D1A06AA84205D120680168012249
:1028B000120311430160002200E0CCE00121204618
:1028C000069B03F0F7FD00287FD12068C068A16B4C
:1028D0000880A06B801CA063E08F401EE087E08E24
:1028E0000028CAD1606800287BD10022012120463F
:1028F000069B03F0DFFD002867D1B6E7002904D06E
:1029000081420BD1E08E012808D1206B411C21634C
:1029100021680078C860E08E401EE086E08E0028C6
:1029200045D1A06AA84205D120680168012212039E
:1029300011430160002201212046069B03F0BAFDED
:10294000002842D12068C068A16B087046E00022D0
:1029500002212046069B03F0ADFD002835D1206BF7
:10296000411C216321680078C860E08E401EE0862B
:10297000E08E00280AD1A06AA84207D12068026828
:102980000121090300E020E00A4302600022012146
:102990002046069B03F08EFD002816D12068C268F1
:1029A000A06B411CA1630270E08F401EE087E08EA7
:1029B0000028CCD16068002813D1002201212046D4
:1029C000069B03F077FD002802D00320F8BD08E045
:1029D0002068C168A06B421CA2630170E08F401E9A
:1029E000E087A06AA8420FD1002201212046069B61
:1029F00003F060FD002802D0606D02210EE0206827
:102A0000C068694608800888012280212046069B0C
:102A100003F050FD002804D0606D2021084360655C
:102A2000D3E701207074A06AA84211D120688168A0
:102A3000C943C9060CD4616D022211436165016866
:102A4000A943016020680168294301603774C4E626
:102A500037740020BAE70220B8E770B5040005D04B
:102A600025466035687A002802D006E0012070BD56
:102A700000202872204600F027F824206872206881
:102A80000168490849000160606A002802D02046B8
:102A900005F0D2FB204605F065FC0128E7D0206850
:102AA00041680922D20291434160206881682A224C
:102AB0009143816020680168012211430160204632
:102AC00005F020FC70BD000010B50448816B0122A8
:102AD00052041143816307F003F810BD0010024057
:102AE000FFB5064604466036707A83B00D4620284E
:102AF00058D1002D0CD00598002809D00120A168DC
:102B00000003814207D12069002804D1E80702D0E0
:102B1000012007B0F0BD307A012843D00120307287
:102B20000020E06621207072FEF78CFD01902746A0
:102B30004037059838820598788218E0788A401ED8
:102B4000788206980090002280212046019B05F0A3
:102B500021FD002818D10120A1680003814202D183
:102B60002069002812D02168287888626D1C788A34
:102B70000028E3D106980090002240212046019BC6
:102B800005F008FD002808D00320C2E72888216846
:102B9000C005C00D8862AD1CE9E7202070720020DE
:102BA0003072B6E70220B4E710B512480178002968
:102BB0001ED10122027011480F49016000210164F9
:102BC000C161D3078161436082638160C16001623A
:102BD00007234162C3630261C1620422426101634F
:102BE0000748416B4215114341630448FEF7CAFA96
:102BF00010BD00008C000020002401403C06002095
:102C0000001002407CB51E490646097800200029C4
:102C100034D01C484168C9430907FBD41A4C606B87
:102C200065152843606300211848FEF707FA184825
:102C300000901848019069461448FEF755FAA01410
:102C40000190694600961148FEF74EFA0F48FEF7CC
:102C5000DBFB0021C9430D48FEF777FB0B48FEF76D
:102C60008DFA0A4980B20A6893680226334393605A
:102C7000096803220A60616BA94361637CBD00009F
:102C80008C00002000700040001002403C06002034
:102C9000FFFF070001100000014600200A0A00D0D3
:102CA0000820084A114201D004221043064A11426A
:102CB00001D002221043054A114201D001210843EC
:102CC00070470000F0F00000CCCC0000AAAA000081
:102CD00038B50B231B07C518114B0FD01C152D1B26
:102CE00018D02D1B19D0A542DD6A05D10824254333
:102CF000DD62DB6A234007E08024F8E7DC6A012517
:102D00002C43DC62DB6A2B40009311601146FEF716
:102D1000D1FB38BDDD6A0224E9E7DD6A0424E6E779
:102D20000010024010B5FFF7B7FF8100024840587D
:102D3000002800D0804710BD5003002070B51C460D
:102D400015460E460846FFF7A7FF0A49002C0DD08E
:102D500080000C50304601F085FA044600222946D6
:102D6000FEF7C6FC2046FEF7AFFC70BD00228000D7
:102D70000A5070BD5003002010B5D2B2FEF75CFCC3
:102D800010BD000070B500240E48FFF73BFF0E4E4B
:102D90000E4D010013D00E483246008B5043FDF714
:102DA000A7F9B04201D9FE2409E0A84207D3401B8D
:102DB000FE2148434B210901FDF79AF9C4B2204690
:102DC00070BD000000000244B80B000008070000BE
:102DD0006000F81F03494A690869496A5040484041
:102DE000704700004000F81F70B51148FFF70AFF58
:102DF000104C01001AD0208B0F4A5043FDF778F990
:102E000005460E48FFF7FEFE68430B49FDF770F9D3
:102E1000618B0522401A12035043E28B511AFDF7D1
:102E20007DF90F214902401880B270BD0025E8E706
:102E3000000002446000F81FB80B000000000448C6
:102E40000F494B6A0A69D218120EC2714B6A0A699D
:102E5000D218120C82710A8A8B8CD218120A427113
:102E60000A7C8B8CD21802714A69120EC2704A69B0
:102E7000120C82708A8A120A4270097D01707047B2
:102E80004000F81FF0B587B014216846FDF7A3F99C
:102E9000224CE06A01210843E062E06A08400590A4
:102EA000E06A02252843E062E06A28400590E06A73
:102EB00004263043E062E06A30400590E06A8027F3
:102EC0003843E062E06A694638400590032001908B
:102ED000002002901248009005200007FEF7EAFA51
:102EE0001048009069461048FEF7E4FA69460F481A
:102EF000FEF7E0FA69460E48FEF7DCFAE06A4008A1
:102F00004000E062E06AA843E062E06AB043E06249
:102F1000E06AB843E06207B0F0BD00000010024074
:102F2000FF9F0000FFFF0000000400500008005059
:102F3000001C005010B5104C607800281AD1FFF723
:102F400033FE0E480068804700F0F0F900F09CF86E
:102F500006F0A4FDFDF776FF0020FDF721FF01201C
:102F6000FDF71EFF0220FDF71BFF0320FDF718FFF2
:102F70000120607010BD00008C000020709D0008D2
:102F800070B5410EC0017D220023FDF7DBF8054638
:102F900000F072F8044600E000BF00F06DF8001B7E
:102FA000A842F9D370BD000070B505460C4600225A
:102FB0002048FFF73DF9002229461E486668FFF7C2
:102FC00015F9002221461B48FFF732F96068B0422C
:102FD000F1D1E878184A01465043C01C830888079D
:102FE00026D0164968783D220646504302463C3AB0
:102FF0007000801EC1408807D10F8918800F4910CA
:10300000081AC018A978401E08180D493C224843E8
:103010006178E123514322781B015A438918A27831
:1030200010180818074A61688002511A401870BDCC
:103030000549D7E790030020B5050000A0AA990034
:1030400080510100FF0300005055440003207047E9
:103050000148006870470000DC03002000B587B01D
:10306000694605A8FFF7A0FF0249096807B0401AA2
:1030700000BD0000DC03002000B587B0694605A84C
:10308000FFF792FF07B000BD10B5084C207800286C
:103090000AD100F04DF8FF2101310548FFF74AF849
:1030A00000F076F80120207010BD000054000020D0
:1030B0009003002010B50D4C0021042000F050FBBF
:1030C00001200B494004486121688868C0040BD581
:1030D000C868C00508D5C86880221040FF3882380B
:1030E000C8602046FFF722F810BD000090030020C2
:1030F0000004014070B50446FFF7B0FF211A0B4DE4
:103100000220285EC01C814201D9002100E001217B
:10311000042000F025FB00F0FBFA012802D1022078
:10312000285E241A204600F03FF870BD54000020AD
:1031300010B51449144886B0002412C01F21016044
:10314000846004611149446141600838FFF79EF8CA
:103150006946CC750120487588750875002205A957
:103160000948FFF7E3F900940194049400226946AA
:1031700005480394FFF740FA0348FEF7B9FF06B08D
:1031800010BD00000028004090030020FF03000055
:1031900010B5044C2046211D1830FFF705FF2060B4
:1031A00010BD0000DC030020F0B587B004461422F7
:1031B0003F4901A8FCF7F6FF3D485038406E0090AB
:1031C00000F07EF83B4802993B4A401AA105890D60
:1031D000081887B2A10A68468078534202E089182D
:1031E000401C80B29942FAD26A461579E122120156
:1031F00002E0891A6D1CADB29142FAD26A46547946
:1032000002E0641CA4B23C393C29FAD292795118EC
:103210008EB20121890203E07A1A761C97B2B6B207
:103220008F42F9D203E03C3E641CB6B2A4B23C2EFD
:10323000F9D203E03C3C6D1CA4B2ADB23C2CF9D2F7
:1032400003E0183D401CADB280B2182DF9D269469A
:10325000C978890769464A7827D01849491E515CC0
:10326000814202D2FCF744FF08461249CA1B1049AA
:103270002C394A60052252068A618E704C700A46CB
:103280000D70203210706846C079C8700020C86187
:10329000FF2248610132C8604A620861024608465E
:1032A0002438FFF773F807B0F0BD04490C31D5E7B7
:1032B000E0030020FF03000080AEFEFF119E000827
:1032C00010B5FF2101310748FEF734FF05480168BA
:1032D000C86880221040FF388238C86002499002D6
:1032E000486110BD900300200004014010B57D210D
:1032F00005F01FFA4906C009084310BD10B5410E7C
:10330000C0017D220023FCF71DFF10BD01B582B076
:103310000020C0430090012301AA02A90248FFF740
:1033200040FA684680880EBDF803002010B51C489E
:103330001A4901601C4A1B4B0021126803E0520825
:10334000491C072901D29A42F9D84A078B07D20FA4
:10335000DB0F52011B011A43C90700D008210A43A1
:10336000C2610021816001614161FF22C1600532BB
:1033700081624260012201625202826141620B4815
:10338000416B8214114341630548FFF7C7F90028D8
:1033900001D0FDF729FE00F00BF810BD0030014010
:1033A000F8030020809698004C0000200010024096
:1033B00030B585B014216846FCF70DFF022001905E
:1033C000029003200390002004906A4608210F48D1
:1033D000FFF77EFC052424076A4640212046FFF7BC
:1033E00077FC6A4680212046FFF772FC012101919B
:1033F000CD0302916A4629462046FFF769FC012267
:1034000029462046FFF7B8FC05B030BD0004005047
:1034100000BFFDE710B507A1095C07A006F0B8FBE7
:103420000C480021017102214171002100F030F9A6
:1034300010BD0000414243007377697463682074D3
:103440006F20636C61737320256320646F6E650A5F
:103450000D0000006000002010B503A006F098FBEE
:10346000002000F093F810BD4A4F494E45440A0D24
:103470000000000070B5224C2160A06021A006F081
:1034800087FB26461436317820A006F081FB012503
:10349000715D22A006F07CFB6D1C082DF8DB1AA0E4
:1034A00006F076FB20481F49016020494160204911
:1034B00081602049C160A06811490068091D086049
:1034C0000522194800F09EF9174D0220103528708A
:1034D000206800782871284600F04CFC07202870EE
:1034E000206880782871284600F044FC002028706D
:1034F0002871284600F03EFC012000F0A3FE70BDBC
:10350000900000204F5441410A0D00004170704569
:1035100075693D2025303258000000002D253032DD
:103520005800000095420008AC06002099420008AF
:10353000F14200083143000810B586B0002168460A
:1035400001700A48019008300290083003901C383E
:10355000006841786846017401A91EC904481EC06C
:10356000684600F02DFD06B010BD00009C00002054
:103570009C0600200EB501216846017000F07CFB1E
:1035800068460079012800D000200EBDFEB5064631
:10359000002469460C70684600F06EFB69460879A5
:1035A000B04221D0114F651E002E02D0022E1BD139
:1035B0000CE0002818D1084600F0DCFB002803D1FD
:1035C000B868816900200EE02C460DE0002800D08C
:1035D0002C4602200871084600F0CCFB0028F3D1ED
:1035E000B8688169022088472046FEBD900000200F
:1035F00010B542791949022A20D0032A10D0632A33
:103600000DD100688078642826D00020087000283A
:103610001BD013A006F0BCFA0220FDF703FC10BD7E
:1036200001790129FBD100680078002803D0012826
:1036300001D00228F3D1FFF7A9FF10BD0279012ABA
:10364000FBD1006800781040E0E708A006F0A0FA7F
:103650000220FDF7D7FB10BD0120D7E7580000205E
:103660004C4544204F4E0A0D000000004C454420BC
:103670004F46460A0D00000010B5044800210171B4
:1036800002214171002100F003F810BD600000200C
:1036900030B585B00D46044605F0FAFD002802D08D
:1036A000002005B030BD207904A900F06FFD01466F
:1036B0000020164A002904D06946087002908881CB
:1036C00020E0002D16D0012168460170617901715A
:1036D000217981812068029008216846C1731068B1
:1036E000417868468173684600F030FA0028D8D0E7
:1036F0000120D6E7694608706079087120798881D1
:1037000020680290106840788873ECE790000020F1
:10371000EFF3108172B607480268002A01D000203A
:1037200005E04068002801D0012000E0022081F37C
:10373000108870479C01002010B5EFF3108272B61C
:10374000064B00295C6803D0012903D1044300E043
:1037500084435C6082F3108810BD00009C0100204F
:1037600010B5EFF3108272B6064B00291C6803D027
:10377000012903D1044300E084431C6082F31088D4
:1037800010BD00009C010020F8B5174605460A460A
:103790001948069C089E0799447183711C0AC471DC
:1037A0001C0C04721B0E437281720B0AC3720B0C49
:1037B0000373090E4173D4B2C4731048FDF71CFAA9
:1037C00039460E48FDF728FA10220B490B48FDF741
:1037D0002BFA224629460948FDF726FA0749C81F51
:1037E000FD38FDF76BF9064C601CFCF7FFFC2178F7
:1037F000000208433060F8BD28010020AC0C002016
:10380000A80B0020F8B50F46050016467ED02868A4
:103810000028FBD068680028F8D0A8680028F5D0F8
:10382000E8680028F2D0104602F037FD00286ED07C
:10383000754C0021E765A5652246E67319321170C3
:1038400021746163A174216561650B216A46117061
:103850003046694602F010FD002800D00120E074D7
:103860000821684601706946E07B02F005FD674D5E
:1038700005212870684601706946E07B02F0FCFC77
:1038800068700C21684601706946E07B02F0F4FC28
:10389000E8600D21684601706946E07B02F0ECFCAF
:1038A00028610E21684601706946E07B02F0E4FC65
:1038B00068610F21684601706946E07B02F0DCFC1C
:1038C000A8611021684601706946E07B02F0D4FCD3
:1038D000E8611321684601706946E07B02F0CCFC88
:1038E0002E46203670701421684601706946E07BD0
:1038F00002F0C2FC68621521684601706946E07BEF
:1039000002F0BAFC30721A21684601E077E078E0F4
:1039100001706946E07B02F0AFFC30731B21684602
:1039200001706946E07B02F0A7FC70731C216846B9
:1039300001706946E07B02F09FFC28631D21684608
:1039400001706946E07B02F097FC68630021E07B30
:1039500002F09CFC012737700A2206216A60284683
:103960002972383842600172E968C16029690161D1
:1039700069694161A9698161E969C16120300770A4
:1039800002F0FEFC28462249383004F073FB7D210A
:103990002846C900383004F0D5FB28461D49683058
:1039A00004F068FB28461C497C3004F063FB284681
:1039B0001A49903004F05EFB28461949CC3004F0D7
:1039C00059FB04F045FB2063284616494C30016042
:1039D0001549816015490161154941601549164D28
:1039E000C160A9688847E869804706F051F86774A4
:1039F000296E38468847686B80470020F8BD032051
:103A0000F8BD0A20F8BD0000C0000020800A002098
:103A1000CD430008E14D0008154D0008754D000824
:103A20008D430008ED4B000815460008ED4A0008DC
:103A3000D94C00086D4B0008709D0008F8B504468D
:103A40001D4617460E460D48FDF7D6F839460B4879
:103A5000FDF7E2F8F2B221460848FDF7E5F807491C
:103A6000C81FFD38FDF72AF8054C601CFCF7BEFBAB
:103A70002178000208432860F8BD0000AC0C00204B
:103A8000A80B0020FFB585B00F46044607ADF02215
:103A900000211D480E9E05F041FE1B4A10212046C4
:103AA00005F002FB10220021684605F037FE0121D7
:103AB00068460170062239466C46401C05F016FE29
:103AC00002222946E01D05F011FE0F4A68460899BA
:103AD00005F0BFFA10220021684605F01FFE022102
:103AE0006846017006223946601C05F0FFFD02227F
:103AF0002946E01D05F0FAFD034A3146684605F007
:103B0000A8FA09B0F0BD0000B80B0020F8B51746C0
:103B10000E4605461C46F02200210B4805F0FEFD2E
:103B2000094A1021384605F0BFFA074A21462846BF
:103B300005F08FFA102E06D321462846024A10318E
:103B4000103005F086FAF8BDB80B0020F0B5044639
:103B50000026022087B0354637460490002C5BD003
:103B60004248406B002802D0012007B0F0BD002081
:103B700069460872014614223D4805F0CFFD3C48D5
:103B800001214170394841732278002A04D0012A6A
:103B90000AD0032A29D11AE001736B461A7A012749
:103BA000D206D20E403207E0E27B02736B461A7AED
:103BB0000127D206D20E80321A722679A2680192AB
:103BC000A2890E2500926557E02E25D80DE00173DD
:103BD0006B461A7AE0231A436B461A7262680192A6
:103BE000012722890A250092655701216A4611752D
:103BF00020490691097B91751C4805A9C07B02F0FC
:103C00003BFBA84200D3054668B2002F22D0174DD7
:103C10002979002902D012E00320A6E7694608733B
:103C200006980422007B887303A9E87B02F09CFBC2
:103C30000028F1D00F496846007B20394870314692
:103C400002A8009B019A04F0D3F80490002803D046
:103C500000206871049888E70548217801700348BE
:103C600001221930017811430170F3E7C0000020F0
:103C7000780B0020680A0020F8B5002504460028CB
:103C800019D03A49277838480A463832C67B3B0073
:103C900004F067FD1F1315181A1C1F212426282A5B
:103CA000313C3A4347494B4D4F51535755595B5D52
:103CB0005F61636567000320F8BD007C00E0C078A9
:103CC00020714FE00079FBE7806C00E0C06C606021
:103CD00048E02748FBE726481030F8E7407CEFE74C
:103CE000807CEDE7192012E020492039486C896C6E
:103CF000A160606036E01D49203908467C30C96FFC
:103D000040686160A0602DE0172000E01620694641
:103D10000870304602F0B0FAD9E714482030007835
:103D2000CEE7C868D3E70869D1E74869CFE7886973
:103D3000CDE7C869CBE75078C2E74878C0E710788C
:103D4000BEE70878BCE7406AC1E7806ABFE7006A5F
:103D5000BDE74868BBE7087AB2E7486BB7E7506B46
:103D6000B5E702252846F8BDC0000020480A00201B
:103D700028070020F0B5002689B00446002806D0A8
:103D80008B4FB88EC00704D0012009B0F0BD0320CE
:103D9000FBE7884D864822782946C07B2031019177
:103DA000497B130004F0DDFC1F112124272A2D3349
:103DB0003C42F1456C827E8D94979A9DA1A4B3D329
:103DC000C4E2E5F1E8F2F8FBF1002079387400284C
:103DD00004D0012805D0022803D103E07648406BC7
:103DE0008047E2E00020787139E02079F870DCE06B
:103DF00020793871D9E06068B864D6E06068F8640A
:103E0000D3E0616800296FD010226C4805E061683A
:103E1000002969D069481022103005F067FCC4E021
:103E2000207965497874096E8847BEE02079B874B6
:103E3000BBE0237A6A4613755175062205A902F084
:103E400093FA002850D05B48A268203861688264E9
:103E50004164387C022812D1F87800280FD05648E7
:103E6000406B804753480821F030009001982A7A2F
:103E700041566B68F87B01F066FD00F0C3FF94E0EB
:103E8000237A6A4613755175062205A902F06CFA69
:103E9000002869D04748A368203862688021C2673B
:103EA0000B5082E061680391012102E06168039197
:103EB00000216A46117403A901F034FB002853D095
:103EC00073E02079411E0E294ED8019908706CE0EC
:103ED0006068E86069E06068286166E06068686161
:103EE00063E06068A86160E03EE06068E8615CE013
:103EF00021796A461175052205A902F035FA0028D4
:103F000032D06846017D2B48383041704DE022792F
:103F100069460A7501990A7B69468A75042205A9D2
:103F200002F022FA00281FD06846007D68703CE04D
:103F300021796A461175082205A902F015FA0028B0
:103F400012D06846017D1B48383001702DE0217980
:103F50006A461175072205A902F006FA002803D067
:103F60006846007D287020E003261EE060687862C5
:103F70001BE06068B86218E00E4861683830416044
:103F8000696012E00BE007E000E00DE009482179EC
:103F900038300172297208E06068686305E00548FE
:103FA00061683830416300E002263046EDE60000EB
:103FB000C0000020480A0020709D0008280700204B
:103FC000FEB5044602200090002C51D03848406BCA
:103FD000002818D10C220021364805F09FFB354EF1
:103FE00001207070324D207808271935002806D03E
:103FF00001283FD0022848D0032830D14DE02C487A
:10400000808EC00601D50120FEBD606800282FD03B
:10401000A06800282CD0E068002829D002F0B0F970
:104020002878384328702078307021486168C1634F
:10403000A1680164E168416410216156C07B01F010
:104040004DFA1D4948700020694608710346024632
:10405000014601A803F0CCFE0090002806D01449C8
:10406000002048712878F721084028700098FEBD8C
:104070000320FEBD28780022384328702078307055
:1040800011460220FCF730FEE6E73070287838430E
:104090002870A08803F020FFDEE7307028783843CE
:1040A0002870227BA088A16803F040FFD4E70000BD
:1040B000C00000208C0B0020480A0020FEB508AF8D
:1040C00070CF6F4670C700F001F8FEBDFFB50D461A
:1040D000002681B01F460124F0223146294805F010
:1040E0001DFB284A1021039804F0DEFF26480A9998
:1040F00041718771390AC171390C0172390E4172EF
:104100000B9981720B991F4F090AC1720B99090C07
:1041100001730B99090E4173203F18E01A48194AA0
:10412000C473641C1146A4B2203904F092FF00202D
:104130003118019A3B5C525C401C5A400C9B80B287
:104140005A541028F4D3103D1036ADB2F6B2102DEB
:10415000E4D2002D13D00B4A0B481146C47320390A
:1041600004F077FF002008E0019A3118525C3B5CB4
:104170005A400C9B401C5A5480B2A842F4D305B05C
:10418000F0BD0000B80B002038010020F3B52B482B
:1041900087B00E46427869460A710078284C087646
:1041A000207A617A4018C5B2002E32D000216846CC
:1041B000017221794172E06A2049039038394A78C6
:1041C000684602741D4F09784174183F397B817429
:1041D00020462C30009006AB01AA02A9E07B01F03A
:1041E0006EF9397B68468175017941750921017540
:1041F000A07C002802D00A206946087505A9E07B4A
:1042000002F03AF8C0B27070A84205D3401B30707B
:1042100006E0032009B0F0BD3070002525726572FC
:104220006846042141562A46079804F0E9F9002817
:1042300001D00020EEE70820ECE70000800A002013
:10424000C000002038B504466846054D04700B22B6
:104250006946E87B02F088F8002800D0EC7438BD8D
:10426000C0000020FF220132811A90420CD009DCEC
:1042700008280DD008DC012808D0022806D0042820
:1042800002D105E00F221202072070470520704777
:1042900006207047704700007CB50446407800282F
:1042A0001CD16079104D012802D1A868C0698047EF
:1042B00004F0EEFF002801D004F0D8FF607B012855
:1042C0000CD1E078E0280AD069464871207B08715B
:1042D000A0680090A8680169684688477CBD0349CA
:1042E000204604F0DBFF7CBD900000209C060020EF
:1042F00010B50446007800280CD0012809D1607858
:10430000002806D104F0C4FF002802D0204604F0A3
:10431000B5FF10BD6078002802D0FFF70DF910BD81
:10432000024880684069804710BD0000900000206E
:104330000078042803D102488068C06900477047AC
:1043400090000020704700008307FF22DB0E9A4098
:104350008907090E994000280BDA0007000F08387A
:10436000830808489B001818C36993430B43C36133
:104370007047830804489B001B1818689043084343
:104380001860704700ED00E000E400E010B50B4855
:1043900003F022FF0A484179002905D001218173E9
:1043A000416B042291434163007C022805D10448FB
:1043B0002022193001781143017010BD4C0B0020F0
:1043C000C000002010B505F033F810BDF8B5002787
:1043D0008D4803F001FF8D4D8D4C287881066DD5F9
:1043E000616B4A0604D54022914349084900616344
:1043F000854A0107D4320026002901DBC10711D00C
:104400008149C0314B78022B02D05378022B09D15D
:10441000636B5B085B0063632672637B4B710E7199
:1044200001278E6061793943774F503F00292BD1A6
:10443000010702D4C10703D126E01178002906D074
:104440003978A27A914208D981070CD417E05078C4
:1044500000280FD16662A6720CE0800703D4267292
:10446000E06A401CE062A6726078002802D1606AAF
:10447000401C6062606B40084000606304E0DF2124
:104480000840287000F0ACFC2878800717D55E4AF9
:10449000C0321079012803D0607B217B88420ED97D
:1044A000A67366716078002802D1606A401C606261
:1044B000607B5071606B40084000606350E0A07BFF
:1044C00000284DD0A08EC0064AD4A673607B217B05
:1044D000884232D2082830D8401C6073C0070DD003
:1044E0001E2168460170397B474F8170703F797893
:1044F00041706946E07B01F0BFFE7870012003F057
:1045000099FB002814D040480921C0304170267220
:10451000616B49084900616366710671617B417195
:1045200039497039497881706078002815D017E0D2
:104530002878DF210840287012E00121E07B01F09B
:10454000A5FE606B4008400060632F4826726671CC
:10455000C0300671617B4171E6E7606A401C6062B1
:10456000606B810702D5022188436063002811D067
:104570007D21C900244803F0E5FD234803F0F4FD44
:104580002878810734D5FD2108402870207C022836
:1045900020D021E02878C10707D0400840002870CB
:1045A000A06D01681848C03088472878010707D5F2
:1045B000F72108402870A06D81681348D4308847DF
:1045C000607A002801D003F07BFC2878DF210840C6
:1045D0002870D5E700F016FC2878400704D4A06DB9
:1045E00041680948A83088472878FB21084028708E
:1045F000C0B2C10607D5EF2108402870A06DC16880
:104600000248801E8847F8BDB80A0020D900002063
:10461000C0000020FFB595B00C4606460021FB48BF
:1046200008910F90103012910D90F9480B91119153
:1046300001711838C281189A0274F64A0D46127E2A
:104640004274C170817041718160017341738174E2
:1046500041610170F048406B8047ED48683803F0D5
:10466000BBFD3078694608704109601E0290201F2A
:10467000EA4F13911090012917D003297ED0052904
:104680007CD007297BD039460120F831487000F0F2
:104690002FFDE048DE4A4179037C447B1279007BA0
:1046A00000296DD0002A6CD1FEE1DA48C1780029DA
:1046B00004D0D749012018394870B3E0D548029991
:1046C000D74D426C89B26B1C701CFFF71FFA68460D
:1046D00000782870109808AB81B2CE48426C28460A
:1046E000FFF7ACF928192038417F027F09021143F6
:1046F000827FC07F12040A43000608991043884253
:1047000047D1C248C34E10300090C04BB28B691CD9
:10471000706CFFF7B7F96879297900020843A97925
:1047200009040143B164287AE97900020843697AEF
:1047300009040143A87A00060843F064E87A4106B8
:10474000490F00077970000F3872287B0107B548C0
:10475000090F016101D1012101617D22D200514384
:10476000016189184161AE48113C0D3004906846E2
:10477000047504A9F07B00F0BAFE03E00EE081E1CD
:104780008FE193E1A2490020143148700120F070BC
:104790007FE79F480721143041707AE7797B6846AC
:1047A00081739B489B4F18380179684641730921F2
:1047B0000173B87C002802D00A206946087303A957
:1047C000F87B01F059FD21460D3909B2002900DAC4
:1047D0000021814200D96CE7B0787178000208436B
:1047E000F17809040143307902060A4389490692A7
:1047F000C96C05208A42874918D00D6A0CE02A68E6
:1048000006998A4207D101211291291D0F91103179
:104810000D916F6A0BE0AD6A002DF0D10B217C4841
:104820001838417000F064FC19B0F0BD8F6A325C3A
:1048300069460A70401C0A92335C401C305C0102DD
:104840001007000F08300990301919432038037FF2
:104850000B9A1343427F12021A43837FC07F1B04CB
:104860001343000618430B90C81B81B20122D203E8
:1048700008A80E91914212D27F180121019702904F
:1048800000911098069B81B230460F9AFEF77CFF8C
:1048900008990B9888421AD10120119017E009B2AB
:1048A0007A1801210904511814910191029010986D
:1048B0000122009281B23046069B0F9AFEF764FFF8
:1048C00008990B98884202D10120149F1190112061
:1048D000694608734F4803A9C07B01F0CDFC0E99CF
:1048E000884205D84A480A2118384170476199E73B
:1048F000119800287AD04649002018394870129A39
:104900008A700A9AD206D20F4A71886008734F6182
:104910001831404A4870D0625072129800280CD06A
:1049200008460222183802706A6ABA4203D1002A85
:1049300001D0082175E76F6223E0139805280DD098
:104940003448334A00238371183A1370806AB8429E
:1049500015D1002813D00820507063E72D482C4B48
:1049600001228271183B1A70806AB84207D1002870
:1049700005D028480423193002781A4302702548CC
:1049800087620878012832D0224A002010720998E4
:10499000201A001F002863DD099D09986D1C621B09
:1049A000121F1B4C305CD2B2183C0E92E0700028F3
:1049B0000A9839D0000707D018980821C3B2681E9A
:1049C000C2B2304600F0B2FB1548012101970091B8
:1049D00002907019069B0D9A0E99FFF76FFB104815
:1049E000A0600E9820730120607343E048E00A98AD
:1049F0008006CCD5074A002010720A98044A800627
:104A0000C00F0871183A9074C1E700002807002011
:104A1000780B0020C0000020709D0008680A00206C
:104A200047080020480A0020000708D02C4804232B
:104A300002781A43027000200871A0741AE0012164
:104A400028480091019702907019069B0F9A0E99C1
:104A5000FFF734FB18980021C3B222480E9A07E0F2
:104A60000A98000706D018980821C3B23046099A60
:104A700000F05CFB1A48022201781143017008E63D
:104A80000C21CCE6711C2246164804F02FFE164875
:104A90000321017000214170124981600299017364
:104AA000E8E7022B02D005E0844203D90E4814380F
:104AB00003F092FB0C481438007A002800D0B3E6CB
:104AC0000748202201781143017007480121A838C6
:104AD00003F038FB0448A83803F046FBA4E60000C6
:104AE000D900002047080020600B002070B51C4C46
:104AF000207C022802D01B48406B80471A48184D82
:104B0000227E01461935202614316379002A0BD004
:104B10000622002B00D042704A70207C02281BD055
:104B200028783043287070BD0522002B00D04270D9
:104B30004A70207C02280FD0206D03F08FFA616E3E
:104B4000884206D30848683803F046FB287830438B
:104B50002870207C0228E6D100F054F970BD0000D6
:104B6000C0000020709D0008780B002070B51C4C20
:104B7000207C022802D01B48406B80471A48184D01
:104B8000227E01461935202614316379002A0BD084
:104B90000422002B00D042704A70207C02281BD0D7
:104BA00028783043287070BD0322002B00D042705B
:104BB0004A70207C02280FD0206D03F04FFA616EFE
:104BC000884206D30848683803F006FB287830434B
:104BD0002870207C0228E6D100F014F970BD000096
:104BE000C0000020709D0008780B0020FEB503F087
:104BF0002FFA364C0646207C022803D03448406BFE
:104C0000804701E000F0FEF8304DA078193500270C
:104C100000282AD02F48216E03F094FA2D4803F083
:104C2000A3FA207C02280ED02A48616E143003F0CB
:104C300089FA2848143003F097FA207C022802D021
:104C40006079002820D012206946087202A9E07B12
:104C500001F012FB616E41181E48503003F072FAE9
:104C60001C48503003F080FA0EE01A4804217C30D2
:104C70004770143041702878002801D10120287035
:104C8000C0B22021084328702878000704D51148B5
:104C900090300078002815D0A775207D6075694692
:104CA0000870E07848700196E07B01F039FB2665DA
:104CB0006079002805D107487C304770A07A401CF5
:104CC000A072FEBD0120A075E7E70000C000002033
:104CD000709D0008FC0A002010B50B48007C0228DB
:104CE00003D00A48406B804701E000F08BF8084988
:104CF000022048701431487003482022193001788E
:104D00001143017010BD0000C0000020709D00081C
:104D1000780B002070B5144803F05EFA134D0020A4
:104D2000114C2876297D283421702146BC394A78D7
:104D3000E270497B2174A97C6174A074E074287CC2
:104D4000022802D10A48806B8047074AE87B683214
:104D50001146403901F0D0FA0348B438C168A07C4C
:104D600001F09CFB70BD0000FC0A0020C000002088
:104D7000709D0008F8B5154803F02EFA134C144D39
:104D80002834287D27462070F03F786A60602046EE
:104D9000D038407B2074A87C60740126E674287C9F
:104DA000022802D00020A07400E0A674074AE87B25
:104DB000543211462C3901F09FFA002804D0A07C0F
:104DC000F96801F06BFB2E76F8BD0000100B002097
:104DD000C000002010B50120FCF714F810BD000041
:104DE00010B5064803F0F8F905481022416B9143CD
:104DF0004163012002F01EFF10BD0000E80A002000
:104E0000C000002010B5FFF7B5FF02490220087668
:104E100010BD0000C0000020F0B50646002420466A
:104E2000002E01D0002A1ED10020F0BD355DAF1E3E
:104E30003B0003F096FC091614160612140E160613
:104E40001600641C1554E4B2401CC0B2335D135408
:104E500000E01554401CC0B203E0A41C00E0641C38
:104E6000E4B2641CE4B28C42E0D3F0BD70470000B1
:104E7000F0B50C4687B08446002198480C9D0691F9
:104E800041831E1E1746417100D10025EAB202700F
:104E90006146934D09782970012100916146097896
:104EA000490908D002293FD004293BD007297DD0E9
:104EB000022007B0F0BD009904464183681C082217
:104EC000216C04F01EFC608B0822083080B26083E5
:104ED0002818E16B04F015FC608B08306083814872
:104EE000C06980470146A083608B06AB2954401CF3
:104EF00080B2090A2954401C6083C1B27848626CB0
:104F0000FEF79CFD608B06992954401C80B20A0A6A
:104F10002A54401C80B20A0C2A54401C80B2090E4C
:104F20002954D7E001214171C178002969D00122BB
:104F300069460A7321786948CA0969464A736A4A08
:104F4000C06A049050780875107848751046203073
:104F5000007B8875614813462C3000902C3803A9DB
:104F6000C07B521C00F0ABFA81012078BF221040B8
:104F700008435A4920708979002905D0574A0021F1
:104F800091712021084320705448C16C54480A0A8A
:104F9000417082700A0CC270090E01712178417152
:104FA0004E49898C8171090AC17100E088E04B4942
:104FB000FF30097AFF304018484908254A7A4A49A3
:104FC000823904F093FB4548017A407A0818C1B24F
:104FD0004248002E01721FD00278002A1CD0C279EC
:104FE000002A22D00F291DD820783D4A03094018F5
:104FF0001B010007000F03432370537100203B4C3B
:1050000007E0072055E7235C53556D1C401CEDB2AB
:1050100080B28842F7D308E03048002905D0C27931
:10502000002A02D0314E017000272C4C00202F4A5C
:10503000E07180322D48FFF7EFFE6072002801D04A
:105040000120E071002E14D02178002911D02448CD
:1050500047556D1CEDB2002F27D0636A002240191E
:105060000092019302901E4AE36C103A3046FFF71B
:105070002DF8207806AB2918618300206E46626AFD
:105080000DC6174A1648203AE36CFEF77DFB144A1A
:10509000618B06985054030A52185370030C000E8B
:1050A0009370D070091D618316E000222272636A3A
:1050B000401900920A4A01930290203AE36CD5E726
:1050C000002B09D00446002A06D0681C314604F0A3
:1050D0000DFB2078401C60830020EAE6C000002021
:1050E00048070020709D0008480A0020460900205B
:1050F00010B50C484022416B1143416340790028B0
:1051000001D0FFF743F907492222193108781043EB
:1051100008700121044803F015F8034803F024F84F
:1051200010BD0000C0000020B80A0020FFB50546F1
:105130008BB0A94816460C46099026E1285D641CF0
:10514000801EE4B2030003F00CFB0906115E6AA1A5
:10515000B0D8F1EFEE00A14900204870285D087238
:10516000641CE0B22A5C4A72401C4AE00020694696
:10517000087708A908706946087208732819401E44
:105180000490301B401C08759548934F02798A752E
:105190000999203F0A7B69464A757A78CA753A7838
:1051A0000A76099908AB0A7869464A7603AA02A9E1
:1051B0000192009107AA04A9C07B01F074F8009045
:1051C000C043400709D16846007F787008A800787E
:1051D00038706846017A09980170002706E00022BD
:1051E00003200099FBF780FD7F1CFFB26846052174
:1051F000007BFAF77DFFB842F1D86846007B2018A3
:10520000401EC4B2C1E0295D7548641C0122C17210
:105210008A40C2830022E4B211460420B3E0285D34
:105220004006410F68464170285D641C0107090F64
:1052300068460170E0B2295C401CC0B201912A5C52
:10524000401C12021143C0B201912A5C401C12049E
:105250001143C4B20846642148430190604869463E
:10526000C07B01F054F80146C84340070BD16846A3
:105270000278099802725848019A203842626846BA
:10528000427809984270002205207CE05448FF21B2
:10529000C06D002804D00068002801D08047014676
:1052A0000E988206920E06206DE0285D694608740D
:1052B000641CE0B20391295C401CC0B200912A5CDE
:1052C000401C12021143C0B200912A5C401C12041F
:1052D000114364225143009100210191C0B22A5C24
:1052E000401C6946C4B20A723D4803A9C07B00F065
:1052F000EBFF00220146072045E0285D641C000703
:10530000000FE4B2002800D101207D21C9004843EC
:1053100031497D222039D20008618018002248617D
:10532000114608202FE033E034E0FFE7285D00213C
:105330006A46641C11705170E4B2810601D50121E6
:105340005170C10601D5012111700007000F907046
:1053500023481146C07B00F0FEFF401C15D0684674
:105360000178099801736846417809984173684645
:1053700080781C49085CFBF745F917490022203961
:10538000086311460920FBF7AFFCB44200D2D5E612
:105390000FB0F0BD285D69460870641CE0B2295C5E
:1053A000401CC0B201912A5C401C12021143C0B2E1
:1053B00001912A5C401C12041143C4B208466421C6
:1053C0004843019006486946C07B00F0C9FA0022B4
:1053D00001460A20D7E70000680A00208C0B002055
:1053E000C0000020299E000870B517490023CA6834
:1053F0001206120F18D18A6B154CD500134A02D52C
:105400001268224009E08E6B01252D072E438E6322
:1054100012688E6B2240AE438E63A24204D10321F8
:105420008903884200D101230A48016849084900DC
:10543000194301600068C007C00F984201D00120E5
:1054400070BD002070BD00000010024000700040E0
:10545000001800000020024001090A220007514301
:10546000000F4018C0B27047002102E00A38C0B2F5
:10547000491C0A28FAD20907090E0843704770B57B
:1054800004460068C168490613D40021C943C160BD
:10549000FCF7D8F87D260546F60006E0FCF7D2F8C2
:1054A000401BB04201D9032070BD2068C06840068F
:1054B000F4D5002070BD10B5FDF7FCFD10BD70B532
:1054C0001C46049B15460E46052801D0002070BDE1
:1054D00022462946304600F04DFA70BD10B5052829
:1054E00001D0002010BD084600F080FA10BD10B5B4
:1054F000052802D1084600F07AFA10BD70B51446AE
:105500000D46052801D0D0B270BD1A462146284666
:1055100000F0A7FA70BD10B5052802D1084600F0CA
:10552000A7FA10BD10B5052801D0002010BD08460F
:1055300000F0BAFA10BD30B502460168C07A0C23FB
:1055400058430930095C50680B01C45A00250C33DC
:10555000C550507A002809D0907A012805D11069E9
:1055600001466143081A5168C85030BDD06800F048
:1055700003F9844200D92046917A002902D1117A98
:10558000002903D011694843401AECE75068C55020
:1055900030BD10B50B0914099C4201D3914201D3CF
:1055A000002010BD5A000C07835A240F0121A1408E
:1055B0008B438352012010BD30B500280AD000294A
:1055C00008D0002304E05C000D5B5B1C0553DBB2DC
:1055D0009342F8D330BDFFB50E461946099A02989A
:1055E00000F0A9F9002824D0002425461DE000235E
:1055F0006F00F15B0120984001420ED0E0180C21B1
:1056000048430A994018007A01060A0F0107090F5A
:10561000029800F090F901280BD05B1CDBB2102B34
:10562000E7D310346D1CE4B2EDB200988442DED3AF
:10563000002004B0F0BDFEB5054614460E465800E5
:10564000FAF7FCFF009060000F460838FAF7E2FF17
:105650002A463346FAF7E0FE3B46009AFAF72AFE5E
:105660002A463346FAF740FF03F09CFDFBF718F893
:10567000A04200D90446099804600898FAF7DEFFB2
:10568000009001912046FAF7D9FF2A463346FAF7EF
:10569000C3FE0022D243FAF79FFF0C4607460222C0
:1056A00028463146FAF798FF3A462346FAF7A6FE0F
:1056B000019B009AFAF7A2FE03F074FDFAF7CCFF03
:1056C0000A990860FEBD000010B5FAF7B7FF024660
:1056D0000B4600200149FAF707FF10BD00002040EB
:1056E00070B506460846FAF7A9FF054601200C46A4
:1056F000B040FAF78FFF2A462346FAF7F5FE00225C
:10570000014BFAF789FE70BD00408F4070B514461A
:105710000D464000FAF776FF2946FAF7C6FD214606
:10572000FAF7BFFDFAF7DAFF03F038FFFAF794FF54
:1057300040B270BDF0B58446964600206246002A0D
:1057400001D0012215E00020F0BD4C0063461F5B34
:1057500010260024234615469D40BD4301D1641CFC
:10576000E4B25B1CDBB2B342F5D32018491CC0B2D3
:10577000C9B27145E9D3F0BD0649884201D264201F
:1057800070470549884202D27D20C0007047034817
:105790007047000080EE3600803F5C02102700005A
:1057A000FFB504460678022083B0205602900325F8
:1057B000042761786557E75700290BD10F2801D1DD
:1057C0000F2D02D000260727E75705202056062573
:1057D00002906557002E25D0112020566169019155
:1057E00000901023E356207AE168029AFFF7F3FE57
:1057F000002801D1FD20064018221921A256615629
:10580000284600F098F8002807D119202056A84211
:1058100001DD054601E0FB200640072E02D1002FE6
:1058200000D1012704990298087005980570069820
:105830000770304607B0F0BD03780022032B14D167
:10584000427813071B0F12068B70120F4A70827872
:105850008A80C3781B021A438A8000794206520F5D
:105860000007CA70000F0870052210467047002814
:105870008A6000D14A607047FFB50024E44381B0DC
:105880001F46002552E0019800280FD002980028FA
:1058900044D0039829010E18B06802F0DFFB0146DE
:1058A000F06881422BD30020F0603DE0039829018D
:1058B00008180090406802F0D1FB064602980028C4
:1058C00003D00098806802F0C9FB864202D9009894
:1058D000406804E00298002803D00098806802F035
:1058E000BDFB0099C968814202D8002000991AE0E6
:1058F000002919D0081AA04216D2044614E0002844
:1059000012D0B06802F0AAFBF168081AA0420BD2CC
:10591000B06802F0A3FBF1680C1A05E000240399BB
:105920002A0120465118C8606D1CEDB2BD42AAD3B1
:10593000204605B0F0BD884203DB904201DC012027
:1059400070470020704770B51C46049B15460E46F4
:10595000052804D122462946304600F041F970BDA1
:1059600010B5052801D0002010BD084600F06AF9E6
:1059700010BD0000FFB504460F460820092681B07F
:105980002056A6576168196061780025012925D144
:1059900000280BD06168402901D301250026602929
:1059A0001CD3C906C90E012903D017E000211960D4
:1059B00014E01E2269460A704870A07A8870684612
:1059C00000F05EF940B2002808D1217800250129B5
:1059D00004D1054907230A881A430A8038700398BE
:1059E0000670284605B0F0BD480100207047F0B5AC
:1059F00087B00746502069460872387910282ED1A2
:105A000000240325264601E0082D19D23868611CC0
:105A1000005D00903A68515C0902084300903A68C2
:105A2000A11C515C0196090408436421484300907D
:105A30000AD068460390057403A800F04BF808E00C
:105A400068460096067201966846057505A800F03E
:105A5000AFF8E41C6D1CEDB2E4B2102DD4D307B046
:105A6000F0BD881A40B2002800DA0020C0B27047AA
:105A700000B585B00A4900910A490191427869460A
:105A80000A7202784A7282788A72C278CA7241684F
:105A90000391806804906846FFF74DFD05B000BD96
:105AA000C40D00204C01002010B50179002903D05D
:105AB000012905D0002010BD01680122044803E03F
:105AC000016803480122801CFFF776FD012010BD0C
:105AD00048010020F8B505460020694608702E7977
